{"contracts/ScamToken.sol":{"ScamToken":{"abi":[{"inputs":[{"internalType":"string","name":"_name","type":"string"},{"internalType":"string","name":"_symbol","type":"string"},{"internalType":"uint8","name":"_decimals","type":"uint8"},{"internalType":"uint256","name":"initialSupply","type":"uint256"}],"stateMutability":"nonpayable","type":"constructor"},{"anonymous":false,"inputs":[{"indexed":true,"internalType":"address","name":"owner","type":"address"},{"indexed":true,"internalType":"address","name":"spender","type":"address"},{"indexed":false,"internalType":"uint256","name":"value","type":"uint256"}],"name":"Approval","type":"event"},{"anonymous":false,"inputs":[{"indexed":true,"internalType":"address","name":"burner","type":"address"},{"indexed":false,"internalType":"uint256","name":"amount","type":"uint256"}],"name":"Burn","type":"event"},{"anonymous":false,"inputs":[{"indexed":true,"internalType":"address","name":"from","type":"address"},{"indexed":true,"internalType":"address","name":"to","type":"address"},{"indexed":false,"internalType":"uint256","name":"value","type":"uint256"}],"name":"Transfer","type":"event"},{"inputs":[{"internalType":"address","name":"owner","type":"address"},{"internalType":"address","name":"spender","type":"address"}],"name":"allowance","outputs":[{"internalType":"uint256","name":"","type":"uint256"}],"stateMutability":"view","type":"function"},{"inputs":[{"internalType":"address","name":"spender","type":"address"},{"internalType":"uint256","name":"amount","type":"uint256"}],"name":"approve","outputs":[{"internalType":"bool","name":"","type":"bool"}],"stateMutability":"nonpayable","type":"function"},{"inputs":[{"internalType":"address","name":"account","type":"address"}],"name":"balanceOf","outputs":[{"internalType":"uint256","name":"","type":"uint256"}],"stateMutability":"view","type":"function"},{"inputs":[{"internalType":"uint256","name":"amount","type":"uint256"}],"name":"burn","outputs":[{"internalType":"bool","name":"","type":"bool"}],"stateMutability":"nonpayable","type":"function"},{"inputs":[],"name":"buyToken","outputs":[],"stateMutability":"payable","type":"function"},{"inputs":[],"name":"decimals","outputs":[{"internalType":"uint8","name":"","type":"uint8"}],"stateMutability":"view","type":"function"},{"inputs":[],"name":"name","outputs":[{"internalType":"string","name":"","type":"string"}],"stateMutability":"view","type":"function"},{"inputs":[{"internalType":"uint256","name":"amountOfTokens","type":"uint256"}],"name":"refundToken","outputs":[],"stateMutability":"nonpayable","type":"function"},{"inputs":[],"name":"symbol","outputs":[{"internalType":"string","name":"","type":"string"}],"stateMutability":"view","type":"function"},{"inputs":[],"name":"tokenCost","outputs":[{"internalType":"uint256","name":"","type":"uint256"}],"stateMutability":"view","type":"function"},{"inputs":[],"name":"totalSupply","outputs":[{"internalType":"uint256","name":"","type":"uint256"}],"stateMutability":"view","type":"function"},{"inputs":[{"internalType":"address","name":"recipient","type":"address"},{"internalType":"uint256","name":"amount","type":"uint256"}],"name":"transfer","outputs":[{"internalType":"bool","name":"","type":"bool"}],"stateMutability":"nonpayable","type":"function"},{"inputs":[{"internalType":"address","name":"sender","type":"address"},{"internalType":"address","name":"recipient","type":"address"},{"internalType":"uint256","name":"amount","type":"uint256"}],"name":"transferFrom","outputs":[{"internalType":"bool","name":"","type":"bool"}],"stateMutability":"nonpayable","type":"function"}],"evm":{"bytecode":{"linkReferences":{},"object":"6080604052655af3107a40006003553480156200001b57600080fd5b506040516200235c3803806200235c833981810160405281019062000041919062000363565b836000908162000052919062000654565b50826001908162000064919062000654565b5081600260006101000a81548160ff021916908360ff160217905550600260009054906101000a900460ff1660ff16600a620000a19190620008be565b81620000ae91906200090f565b600481905550600a600454620000c591906200095a565b600560003073ffffffffffffffffffffffffffffffffffffffff1673ffffffffffffffffffffffffffffffffffffffff16815260200190815260200160002081905550600a600560003373ffffffffffffffffffffffffffffffffffffffff1673ffffffffffffffffffffffffffffffffffffffff168152602001908152602001600020819055505050505062000995565b6000604051905090565b600080fd5b600080fd5b600080fd5b600080fd5b6000601f19601f8301169050919050565b7f4e487b7100000000000000000000000000000000000000000000000000000000600052604160045260246000fd5b620001c08262000175565b810181811067ffffffffffffffff82111715620001e257620001e162000186565b5b80604052505050565b6000620001f762000157565b9050620002058282620001b5565b919050565b600067ffffffffffffffff82111562000228576200022762000186565b5b620002338262000175565b9050602081019050919050565b60005b838110156200026057808201518184015260208101905062000243565b60008484015250505050565b6000620002836200027d846200020a565b620001eb565b905082815260208101848484011115620002a257620002a162000170565b5b620002af84828562000240565b509392505050565b600082601f830112620002cf57620002ce6200016b565b5b8151620002e18482602086016200026c565b91505092915050565b600060ff82169050919050565b6200030281620002ea565b81146200030e57600080fd5b50565b6000815190506200032281620002f7565b92915050565b6000819050919050565b6200033d8162000328565b81146200034957600080fd5b50565b6000815190506200035d8162000332565b92915050565b6000806000806080858703121562000380576200037f62000161565b5b600085015167ffffffffffffffff811115620003a157620003a062000166565b5b620003af87828801620002b7565b945050602085015167ffffffffffffffff811115620003d357620003d262000166565b5b620003e187828801620002b7565b9350506040620003f48782880162000311565b925050606062000407878288016200034c565b91505092959194509250565b600081519050919050565b7f4e487b7100000000000000000000000000000000000000000000000000000000600052602260045260246000fd5b600060028204905060018216806200046657607f821691505b6020821081036200047c576200047b6200041e565b5b50919050565b60008190508160005260206000209050919050565b60006020601f8301049050919050565b600082821b905092915050565b600060088302620004e67fffffffffffffffffffffffffffffffffffffffffffffffffffffffffffffffff82620004a7565b620004f28683620004a7565b95508019841693508086168417925050509392505050565b6000819050919050565b6000620005356200052f620005298462000328565b6200050a565b62000328565b9050919050565b6000819050919050565b620005518362000514565b6200056962000560826200053c565b848454620004b4565b825550505050565b600090565b6200058062000571565b6200058d81848462000546565b505050565b5b81811015620005b557620005a960008262000576565b60018101905062000593565b5050565b601f8211156200060457620005ce8162000482565b620005d98462000497565b81016020851015620005e9578190505b62000601620005f88562000497565b83018262000592565b50505b505050565b600082821c905092915050565b6000620006296000198460080262000609565b1980831691505092915050565b600062000644838362000616565b9150826002028217905092915050565b6200065f8262000413565b67ffffffffffffffff8111156200067b576200067a62000186565b5b6200068782546200044d565b62000694828285620005b9565b600060209050601f831160018114620006cc5760008415620006b7578287015190505b620006c3858262000636565b86555062000733565b601f198416620006dc8662000482565b60005b828110156200070657848901518255600182019150602085019450602081019050620006df565b8683101562000726578489015162000722601f89168262000616565b8355505b6001600288020188555050505b505050505050565b7f4e487b7100000000000000000000000000000000000000000000000000000000600052601160045260246000fd5b60008160011c9050919050565b6000808291508390505b6001851115620007c957808604811115620007a157620007a06200073b565b5b6001851615620007b15780820291505b8081029050620007c1856200076a565b945062000781565b94509492505050565b600082620007e45760019050620008b7565b81620007f45760009050620008b7565b81600181146200080d576002811462000818576200084e565b6001915050620008b7565b60ff8411156200082d576200082c6200073b565b5b8360020a9150848211156200084757620008466200073b565b5b50620008b7565b5060208310610133831016604e8410600b8410161715620008885782820a9050838111156200088257620008816200073b565b5b620008b7565b62000897848484600162000777565b92509050818404811115620008b157620008b06200073b565b5b81810290505b9392505050565b6000620008cb8262000328565b9150620008d88362000328565b9250620009077fffffffffffffffffffffffffffffffffffffffffffffffffffffffffffffffff8484620007d2565b905092915050565b60006200091c8262000328565b9150620009298362000328565b9250828202620009398162000328565b915082820484148315176200095357620009526200073b565b5b5092915050565b6000620009678262000328565b9150620009748362000328565b92508282039050818111156200098f576200098e6200073b565b5b92915050565b6119b780620009a56000396000f3fe6080604052600436106100c25760003560e01c806342966c681161007f57806395d89b411161005957806395d89b4114610290578063a4821719146102bb578063a9059cbb146102c5578063dd62ed3e14610302576100c2565b806342966c68146101eb57806370a0823114610228578063912221d514610265576100c2565b806306fdde03146100c7578063095ea7b3146100f2578063171917041461012f57806318160ddd1461015857806323b872dd14610183578063313ce567146101c0575b600080fd5b3480156100d357600080fd5b506100dc61033f565b6040516100e99190610e63565b60405180910390f35b3480156100fe57600080fd5b5061011960048036038101906101149190610f1e565b6103cd565b6040516101269190610f79565b60405180910390f35b34801561013b57600080fd5b5061015660048036038101906101519190610f94565b6103e4565b005b34801561016457600080fd5b5061016d610577565b60405161017a9190610fd0565b60405180910390f35b34801561018f57600080fd5b506101aa60048036038101906101a59190610feb565b610581565b6040516101b79190610f79565b60405180910390f35b3480156101cc57600080fd5b506101d561062b565b6040516101e2919061105a565b60405180910390f35b3480156101f757600080fd5b50610212600480360381019061020d9190610f94565b61063e565b60405161021f9190610f79565b60405180910390f35b34801561023457600080fd5b5061024f600480360381019061024a9190611075565b610788565b60405161025c9190610fd0565b60405180910390f35b34801561027157600080fd5b5061027a6107d1565b6040516102879190610fd0565b60405180910390f35b34801561029c57600080fd5b506102a56107d7565b6040516102b29190610e63565b60405180910390f35b6102c3610865565b005b3480156102d157600080fd5b506102ec60048036038101906102e79190610f1e565b6108f6565b6040516102f99190610f79565b60405180910390f35b34801561030e57600080fd5b50610329600480360381019061032491906110a2565b61090d565b6040516103369190610fd0565b60405180910390f35b6000805461034c90611111565b80601f016020809104026020016040519081016040528092919081815260200182805461037890611111565b80156103c55780601f1061039a576101008083540402835291602001916103c5565b820191906000526020600020905b8154815290600101906020018083116103a857829003601f168201915b505050505081565b60006103da338484610994565b6001905092915050565b6000600354826103f49190611171565b905080471015610439576040517f08c379a000000000000000000000000000000000000000000000000000000000815260040161043090611225565b60405180910390fd5b81600560003373ffffffffffffffffffffffffffffffffffffffff1673ffffffffffffffffffffffffffffffffffffffff1681526020019081526020016000205410156104bb576040517f08c379a00000000000000000000000000000000000000000000000000000000081526004016104b290611291565b60405180910390fd5b6104c6333084610b5d565b60003373ffffffffffffffffffffffffffffffffffffffff16826040516104ec906112e2565b60006040518083038185875af1925050503d8060008114610529576040519150601f19603f3d011682016040523d82523d6000602084013e61052e565b606091505b5050905080610572576040517f08c379a000000000000000000000000000000000000000000000000000000000815260040161056990611343565b60405180910390fd5b505050565b6000600454905090565b600061058e848484610b5d565b610620843384600660008973ffffffffffffffffffffffffffffffffffffffff1673ffffffffffffffffffffffffffffffffffffffff16815260200190815260200160002060003373ffffffffffffffffffffffffffffffffffffffff1673ffffffffffffffffffffffffffffffffffffffff1681526020019081526020016000205461061b9190611363565b610994565b600190509392505050565b600260009054906101000a900460ff1681565b600081600560003373ffffffffffffffffffffffffffffffffffffffff1673ffffffffffffffffffffffffffffffffffffffff1681526020019081526020016000205410156106c2576040517f08c379a00000000000000000000000000000000000000000000000000000000081526004016106b9906113e3565b60405180910390fd5b81600560003373ffffffffffffffffffffffffffffffffffffffff1673ffffffffffffffffffffffffffffffffffffffff16815260200190815260200160002060008282546107119190611363565b92505081905550816004600082825461072a9190611363565b925050819055503373ffffffffffffffffffffffffffffffffffffffff167fcc16f5dbb4873280815c1ee09dbd06736cffcc184412cf7a71a0fdb75d397ca5836040516107779190610fd0565b60405180910390a260019050919050565b6000600560008373ffffffffffffffffffffffffffffffffffffffff1673ffffffffffffffffffffffffffffffffffffffff168152602001908152602001600020549050919050565b60035481565b600180546107e490611111565b80601f016020809104026020016040519081016040528092919081815260200182805461081090611111565b801561085d5780601f106108325761010080835404028352916020019161085d565b820191906000526020600020905b81548152906001019060200180831161084057829003601f168201915b505050505081565b6003543410156108aa576040517f08c379a00000000000000000000000000000000000000000000000000000000081526004016108a190611475565b60405180910390fd5b6000600354346108ba91906114c4565b9050600260009054906101000a900460ff1660ff16600a6108db9190611628565b816108e69190611171565b90506108f3303383610b5d565b50565b6000610903338484610b5d565b6001905092915050565b6000600660008473ffffffffffffffffffffffffffffffffffffffff1673ffffffffffffffffffffffffffffffffffffffff16815260200190815260200160002060008373ffffffffffffffffffffffffffffffffffffffff1673ffffffffffffffffffffffffffffffffffffffff16815260200190815260200160002054905092915050565b600073ffffffffffffffffffffffffffffffffffffffff168373ffffffffffffffffffffffffffffffffffffffff1603610a03576040517f08c379a00000000000000000000000000000000000000000000000000000000081526004016109fa906116e5565b60405180910390fd5b600073ffffffffffffffffffffffffffffffffffffffff168273ffffffffffffffffffffffffffffffffffffffff1603610a72576040517f08c379a0000000000000000000000000000000000000000000000000000000008152600401610a6990611777565b60405180910390fd5b80600660008573ffffffffffffffffffffffffffffffffffffffff1673ffffffffffffffffffffffffffffffffffffffff16815260200190815260200160002060008473ffffffffffffffffffffffffffffffffffffffff1673ffffffffffffffffffffffffffffffffffffffff168152602001908152602001600020819055508173ffffffffffffffffffffffffffffffffffffffff168373ffffffffffffffffffffffffffffffffffffffff167f8c5be1e5ebec7d5bd14f71427d1e84f3dd0314c0f7b2291e5b200ac8c7c3b92583604051610b509190610fd0565b60405180910390a3505050565b600073ffffffffffffffffffffffffffffffffffffffff168373ffffffffffffffffffffffffffffffffffffffff1603610bcc576040517f08c379a0000000000000000000000000000000000000000000000000000000008152600401610bc390611809565b60405180910390fd5b600073ffffffffffffffffffffffffffffffffffffffff168273ffffffffffffffffffffffffffffffffffffffff1603610c3b576040517f08c379a0000000000000000000000000000000000000000000000000000000008152600401610c329061189b565b60405180910390fd5b80600560008573ffffffffffffffffffffffffffffffffffffffff1673ffffffffffffffffffffffffffffffffffffffff168152602001908152602001600020541015610cbd576040517f08c379a0000000000000000000000000000000000000000000000000000000008152600401610cb49061192d565b60405180910390fd5b80600560008573ffffffffffffffffffffffffffffffffffffffff1673ffffffffffffffffffffffffffffffffffffffff1681526020019081526020016000206000828254610d0c9190611363565b9250508190555080600560008473ffffffffffffffffffffffffffffffffffffffff1673ffffffffffffffffffffffffffffffffffffffff1681526020019081526020016000206000828254610d62919061194d565b925050819055508173ffffffffffffffffffffffffffffffffffffffff168373ffffffffffffffffffffffffffffffffffffffff167fddf252ad1be2c89b69c2b068fc378daa952ba7f163c4a11628f55a4df523b3ef83604051610dc69190610fd0565b60405180910390a3505050565b600081519050919050565b600082825260208201905092915050565b60005b83811015610e0d578082015181840152602081019050610df2565b60008484015250505050565b6000601f19601f8301169050919050565b6000610e3582610dd3565b610e3f8185610dde565b9350610e4f818560208601610def565b610e5881610e19565b840191505092915050565b60006020820190508181036000830152610e7d8184610e2a565b905092915050565b600080fd5b600073ffffffffffffffffffffffffffffffffffffffff82169050919050565b6000610eb582610e8a565b9050919050565b610ec581610eaa565b8114610ed057600080fd5b50565b600081359050610ee281610ebc565b92915050565b6000819050919050565b610efb81610ee8565b8114610f0657600080fd5b50565b600081359050610f1881610ef2565b92915050565b60008060408385031215610f3557610f34610e85565b5b6000610f4385828601610ed3565b9250506020610f5485828601610f09565b9150509250929050565b60008115159050919050565b610f7381610f5e565b82525050565b6000602082019050610f8e6000830184610f6a565b92915050565b600060208284031215610faa57610fa9610e85565b5b6000610fb884828501610f09565b91505092915050565b610fca81610ee8565b82525050565b6000602082019050610fe56000830184610fc1565b92915050565b60008060006060848603121561100457611003610e85565b5b600061101286828701610ed3565b935050602061102386828701610ed3565b925050604061103486828701610f09565b9150509250925092565b600060ff82169050919050565b6110548161103e565b82525050565b600060208201905061106f600083018461104b565b92915050565b60006020828403121561108b5761108a610e85565b5b600061109984828501610ed3565b91505092915050565b600080604083850312156110b9576110b8610e85565b5b60006110c785828601610ed3565b92505060206110d885828601610ed3565b9150509250929050565b7f4e487b7100000000000000000000000000000000000000000000000000000000600052602260045260246000fd5b6000600282049050600182168061112957607f821691505b60208210810361113c5761113b6110e2565b5b50919050565b7f4e487b7100000000000000000000000000000000000000000000000000000000600052601160045260246000fd5b600061117c82610ee8565b915061118783610ee8565b925082820261119581610ee8565b915082820484148315176111ac576111ab611142565b5b5092915050565b7f436f6e74726163742068617320696e73756666696369656e742062616c616e6360008201527f6500000000000000000000000000000000000000000000000000000000000000602082015250565b600061120f602183610dde565b915061121a826111b3565b604082019050919050565b6000602082019050818103600083015261123e81611202565b9050919050565b7f496e73756666696369656e7420746f6b656e2062616c616e6365000000000000600082015250565b600061127b601a83610dde565b915061128682611245565b602082019050919050565b600060208201905081810360008301526112aa8161126e565b9050919050565b600081905092915050565b50565b60006112cc6000836112b1565b91506112d7826112bc565b600082019050919050565b60006112ed826112bf565b9150819050919050565b7f455448207472616e73666572206661696c656400000000000000000000000000600082015250565b600061132d601383610dde565b9150611338826112f7565b602082019050919050565b6000602082019050818103600083015261135c81611320565b9050919050565b600061136e82610ee8565b915061137983610ee8565b925082820390508181111561139157611390611142565b5b92915050565b7f496e73756666696369656e742062616c616e6365000000000000000000000000600082015250565b60006113cd601483610dde565b91506113d882611397565b602082019050919050565b600060208201905081810360008301526113fc816113c0565b9050919050565b7f4e6f7420656e6f756768204554482073656e743b20636865636b20707269636560008201527f2100000000000000000000000000000000000000000000000000000000000000602082015250565b600061145f602183610dde565b915061146a82611403565b604082019050919050565b6000602082019050818103600083015261148e81611452565b9050919050565b7f4e487b7100000000000000000000000000000000000000000000000000000000600052601260045260246000fd5b60006114cf82610ee8565b91506114da83610ee8565b9250826114ea576114e9611495565b5b828204905092915050565b60008160011c9050919050565b6000808291508390505b600185111561154c5780860481111561152857611527611142565b5b60018516156115375780820291505b8081029050611545856114f5565b945061150c565b94509492505050565b6000826115655760019050611621565b816115735760009050611621565b81600181146115895760028114611593576115c2565b6001915050611621565b60ff8411156115a5576115a4611142565b5b8360020a9150848211156115bc576115bb611142565b5b50611621565b5060208310610133831016604e8410600b84101617156115f75782820a9050838111156115f2576115f1611142565b5b611621565b6116048484846001611502565b9250905081840481111561161b5761161a611142565b5b81810290505b9392505050565b600061163382610ee8565b915061163e83610ee8565b925061166b7fffffffffffffffffffffffffffffffffffffffffffffffffffffffffffffffff8484611555565b905092915050565b7f45524332303a20617070726f76652066726f6d20746865207a65726f2061646460008201527f7265737300000000000000000000000000000000000000000000000000000000602082015250565b60006116cf602483610dde565b91506116da82611673565b604082019050919050565b600060208201905081810360008301526116fe816116c2565b9050919050565b7f45524332303a20617070726f766520746f20746865207a65726f20616464726560008201527f7373000000000000000000000000000000000000000000000000000000000000602082015250565b6000611761602283610dde565b915061176c82611705565b604082019050919050565b6000602082019050818103600083015261179081611754565b9050919050565b7f45524332303a207472616e736665722066726f6d20746865207a65726f20616460008201527f6472657373000000000000000000000000000000000000000000000000000000602082015250565b60006117f3602583610dde565b91506117fe82611797565b604082019050919050565b60006020820190508181036000830152611822816117e6565b9050919050565b7f45524332303a207472616e7366657220746f20746865207a65726f206164647260008201527f6573730000000000000000000000000000000000000000000000000000000000602082015250565b6000611885602383610dde565b915061189082611829565b604082019050919050565b600060208201905081810360008301526118b481611878565b9050919050565b7f45524332303a207472616e7366657220616d6f756e742065786365656473206260008201527f616c616e63650000000000000000000000000000000000000000000000000000602082015250565b6000611917602683610dde565b9150611922826118bb565b604082019050919050565b600060208201905081810360008301526119468161190a565b9050919050565b600061195882610ee8565b915061196383610ee8565b925082820190508082111561197b5761197a611142565b5b9291505056fea2646970667358221220d54c8576d3f3e42317cf4b3d76e2fcb689bfaed5a02f8989483fddb7a6c44de564736f6c63430008180033","opcodes":"PUSH1 0x80 PUSH1 0x40 MSTORE PUSH6 0x5AF3107A4000 PUSH1 0x3 SSTORE CALLVALUE DUP1 ISZERO PUSH3 0x1B JUMPI PUSH1 0x0 DUP1 REVERT JUMPDEST POP PUSH1 0x40 MLOAD PUSH3 0x235C CODESIZE SUB DUP1 PUSH3 0x235C DUP4 CODECOPY DUP2 DUP2 ADD PUSH1 0x40 MSTORE DUP2 ADD SWAP1 PUSH3 0x41 SWAP2 SWAP1 PUSH3 0x363 JUMP JUMPDEST DUP4 PUSH1 0x0 SWAP1 DUP2 PUSH3 0x52 SWAP2 SWAP1 PUSH3 0x654 JUMP JUMPDEST POP DUP3 PUSH1 0x1 SWAP1 DUP2 PUSH3 0x64 SWAP2 SWAP1 PUSH3 0x654 JUMP JUMPDEST POP DUP2 PUSH1 0x2 PUSH1 0x0 PUSH2 0x100 EXP DUP2 SLOAD DUP2 PUSH1 0xFF MUL NOT AND SWAP1 DUP4 PUSH1 0xFF AND MUL OR SWAP1 SSTORE POP PUSH1 0x2 PUSH1 0x0 SWAP1 SLOAD SWAP1 PUSH2 0x100 EXP SWAP1 DIV PUSH1 0xFF AND PUSH1 0xFF AND PUSH1 0xA PUSH3 0xA1 SWAP2 SWAP1 PUSH3 0x8BE JUMP JUMPDEST DUP2 PUSH3 0xAE SWAP2 SWAP1 PUSH3 0x90F JUMP JUMPDEST PUSH1 0x4 DUP2 SWAP1 SSTORE POP PUSH1 0xA PUSH1 0x4 SLOAD PUSH3 0xC5 SWAP2 SWAP1 PUSH3 0x95A JUMP JUMPDEST PUSH1 0x5 PUSH1 0x0 ADDRESS PUSH20 0xFFFFFFFFFFFFFFFFFFFFFFFFFFFFFFFFFFFFFFFF AND PUSH20 0xFFFFFFFFFFFFFFFFFFFFFFFFFFFFFFFFFFFFFFFF AND DUP2 MSTORE PUSH1 0x20 ADD SWAP1 DUP2 MSTORE PUSH1 0x20 ADD PUSH1 0x0 KECCAK256 DUP2 SWAP1 SSTORE POP PUSH1 0xA PUSH1 0x5 PUSH1 0x0 CALLER PUSH20 0xFFFFFFFFFFFFFFFFFFFFFFFFFFFFFFFFFFFFFFFF AND PUSH20 0xFFFFFFFFFFFFFFFFFFFFFFFFFFFFFFFFFFFFFFFF AND DUP2 MSTORE PUSH1 0x20 ADD SWAP1 DUP2 MSTORE PUSH1 0x20 ADD PUSH1 0x0 KECCAK256 DUP2 SWAP1 SSTORE POP POP POP POP POP PUSH3 0x995 JUMP JUMPDEST PUSH1 0x0 PUSH1 0x40 MLOAD SWAP1 POP SWAP1 JUMP JUMPDEST PUSH1 0x0 DUP1 REVERT JUMPDEST PUSH1 0x0 DUP1 REVERT JUMPDEST PUSH1 0x0 DUP1 REVERT JUMPDEST PUSH1 0x0 DUP1 REVERT JUMPDEST PUSH1 0x0 PUSH1 0x1F NOT PUSH1 0x1F DUP4 ADD AND SWAP1 POP SWAP2 SWAP1 POP JUMP JUMPDEST PUSH32 0x4E487B7100000000000000000000000000000000000000000000000000000000 PUSH1 0x0 MSTORE PUSH1 0x41 PUSH1 0x4 MSTORE PUSH1 0x24 PUSH1 0x0 REVERT JUMPDEST PUSH3 0x1C0 DUP3 PUSH3 0x175 JUMP JUMPDEST DUP2 ADD DUP2 DUP2 LT PUSH8 0xFFFFFFFFFFFFFFFF DUP3 GT OR ISZERO PUSH3 0x1E2 JUMPI PUSH3 0x1E1 PUSH3 0x186 JUMP JUMPDEST JUMPDEST DUP1 PUSH1 0x40 MSTORE POP POP POP JUMP JUMPDEST PUSH1 0x0 PUSH3 0x1F7 PUSH3 0x157 JUMP JUMPDEST SWAP1 POP PUSH3 0x205 DUP3 DUP3 PUSH3 0x1B5 JUMP JUMPDEST SWAP2 SWAP1 POP JUMP JUMPDEST PUSH1 0x0 PUSH8 0xFFFFFFFFFFFFFFFF DUP3 GT ISZERO PUSH3 0x228 JUMPI PUSH3 0x227 PUSH3 0x186 JUMP JUMPDEST JUMPDEST PUSH3 0x233 DUP3 PUSH3 0x175 JUMP JUMPDEST SWAP1 POP PUSH1 0x20 DUP2 ADD SWAP1 POP SWAP2 SWAP1 POP JUMP JUMPDEST PUSH1 0x0 JUMPDEST DUP4 DUP2 LT ISZERO PUSH3 0x260 JUMPI DUP1 DUP3 ADD MLOAD DUP2 DUP5 ADD MSTORE PUSH1 0x20 DUP2 ADD SWAP1 POP PUSH3 0x243 JUMP JUMPDEST PUSH1 0x0 DUP5 DUP5 ADD MSTORE POP POP POP POP JUMP JUMPDEST PUSH1 0x0 PUSH3 0x283 PUSH3 0x27D DUP5 PUSH3 0x20A JUMP JUMPDEST PUSH3 0x1EB JUMP JUMPDEST SWAP1 POP DUP3 DUP2 MSTORE PUSH1 0x20 DUP2 ADD DUP5 DUP5 DUP5 ADD GT ISZERO PUSH3 0x2A2 JUMPI PUSH3 0x2A1 PUSH3 0x170 JUMP JUMPDEST JUMPDEST PUSH3 0x2AF DUP5 DUP3 DUP6 PUSH3 0x240 JUMP JUMPDEST POP SWAP4 SWAP3 POP POP POP JUMP JUMPDEST PUSH1 0x0 DUP3 PUSH1 0x1F DUP4 ADD SLT PUSH3 0x2CF JUMPI PUSH3 0x2CE PUSH3 0x16B JUMP JUMPDEST JUMPDEST DUP2 MLOAD PUSH3 0x2E1 DUP5 DUP3 PUSH1 0x20 DUP7 ADD PUSH3 0x26C JUMP JUMPDEST SWAP2 POP POP SWAP3 SWAP2 POP POP JUMP JUMPDEST PUSH1 0x0 PUSH1 0xFF DUP3 AND SWAP1 POP SWAP2 SWAP1 POP JUMP JUMPDEST PUSH3 0x302 DUP2 PUSH3 0x2EA JUMP JUMPDEST DUP2 EQ PUSH3 0x30E JUMPI PUSH1 0x0 DUP1 REVERT JUMPDEST POP JUMP JUMPDEST PUSH1 0x0 DUP2 MLOAD SWAP1 POP PUSH3 0x322 DUP2 PUSH3 0x2F7 JUMP JUMPDEST SWAP3 SWAP2 POP POP JUMP JUMPDEST PUSH1 0x0 DUP2 SWAP1 POP SWAP2 SWAP1 POP JUMP JUMPDEST PUSH3 0x33D DUP2 PUSH3 0x328 JUMP JUMPDEST DUP2 EQ PUSH3 0x349 JUMPI PUSH1 0x0 DUP1 REVERT JUMPDEST POP JUMP JUMPDEST PUSH1 0x0 DUP2 MLOAD SWAP1 POP PUSH3 0x35D DUP2 PUSH3 0x332 JUMP JUMPDEST SWAP3 SWAP2 POP POP JUMP JUMPDEST PUSH1 0x0 DUP1 PUSH1 0x0 DUP1 PUSH1 0x80 DUP6 DUP8 SUB SLT ISZERO PUSH3 0x380 JUMPI PUSH3 0x37F PUSH3 0x161 JUMP JUMPDEST JUMPDEST PUSH1 0x0 DUP6 ADD MLOAD PUSH8 0xFFFFFFFFFFFFFFFF DUP2 GT ISZERO PUSH3 0x3A1 JUMPI PUSH3 0x3A0 PUSH3 0x166 JUMP JUMPDEST JUMPDEST PUSH3 0x3AF DUP8 DUP3 DUP9 ADD PUSH3 0x2B7 JUMP JUMPDEST SWAP5 POP POP PUSH1 0x20 DUP6 ADD MLOAD PUSH8 0xFFFFFFFFFFFFFFFF DUP2 GT ISZERO PUSH3 0x3D3 JUMPI PUSH3 0x3D2 PUSH3 0x166 JUMP JUMPDEST JUMPDEST PUSH3 0x3E1 DUP8 DUP3 DUP9 ADD PUSH3 0x2B7 JUMP JUMPDEST SWAP4 POP POP PUSH1 0x40 PUSH3 0x3F4 DUP8 DUP3 DUP9 ADD PUSH3 0x311 JUMP JUMPDEST SWAP3 POP POP PUSH1 0x60 PUSH3 0x407 DUP8 DUP3 DUP9 ADD PUSH3 0x34C JUMP JUMPDEST SWAP2 POP POP SWAP3 SWAP6 SWAP2 SWAP5 POP SWAP3 POP JUMP JUMPDEST PUSH1 0x0 DUP2 MLOAD SWAP1 POP SWAP2 SWAP1 POP JUMP JUMPDEST PUSH32 0x4E487B7100000000000000000000000000000000000000000000000000000000 PUSH1 0x0 MSTORE PUSH1 0x22 PUSH1 0x4 MSTORE PUSH1 0x24 PUSH1 0x0 REVERT JUMPDEST PUSH1 0x0 PUSH1 0x2 DUP3 DIV SWAP1 POP PUSH1 0x1 DUP3 AND DUP1 PUSH3 0x466 JUMPI PUSH1 0x7F DUP3 AND SWAP2 POP JUMPDEST PUSH1 0x20 DUP3 LT DUP2 SUB PUSH3 0x47C JUMPI PUSH3 0x47B PUSH3 0x41E JUMP JUMPDEST JUMPDEST POP SWAP2 SWAP1 POP JUMP JUMPDEST PUSH1 0x0 DUP2 SWAP1 POP DUP2 PUSH1 0x0 MSTORE PUSH1 0x20 PUSH1 0x0 KECCAK256 SWAP1 POP SWAP2 SWAP1 POP JUMP JUMPDEST PUSH1 0x0 PUSH1 0x20 PUSH1 0x1F DUP4 ADD DIV SWAP1 POP SWAP2 SWAP1 POP JUMP JUMPDEST PUSH1 0x0 DUP3 DUP3 SHL SWAP1 POP SWAP3 SWAP2 POP POP JUMP JUMPDEST PUSH1 0x0 PUSH1 0x8 DUP4 MUL PUSH3 0x4E6 PUSH32 0xFFFFFFFFFFFFFFFFFFFFFFFFFFFFFFFFFFFFFFFFFFFFFFFFFFFFFFFFFFFFFFFF DUP3 PUSH3 0x4A7 JUMP JUMPDEST PUSH3 0x4F2 DUP7 DUP4 PUSH3 0x4A7 JUMP JUMPDEST SWAP6 POP DUP1 NOT DUP5 AND SWAP4 POP DUP1 DUP7 AND DUP5 OR SWAP3 POP POP POP SWAP4 SWAP3 POP POP POP JUMP JUMPDEST PUSH1 0x0 DUP2 SWAP1 POP SWAP2 SWAP1 POP JUMP JUMPDEST PUSH1 0x0 PUSH3 0x535 PUSH3 0x52F PUSH3 0x529 DUP5 PUSH3 0x328 JUMP JUMPDEST PUSH3 0x50A JUMP JUMPDEST PUSH3 0x328 JUMP JUMPDEST SWAP1 POP SWAP2 SWAP1 POP JUMP JUMPDEST PUSH1 0x0 DUP2 SWAP1 POP SWAP2 SWAP1 POP JUMP JUMPDEST PUSH3 0x551 DUP4 PUSH3 0x514 JUMP JUMPDEST PUSH3 0x569 PUSH3 0x560 DUP3 PUSH3 0x53C JUMP JUMPDEST DUP5 DUP5 SLOAD PUSH3 0x4B4 JUMP JUMPDEST DUP3 SSTORE POP POP POP POP JUMP JUMPDEST PUSH1 0x0 SWAP1 JUMP JUMPDEST PUSH3 0x580 PUSH3 0x571 JUMP JUMPDEST PUSH3 0x58D DUP2 DUP5 DUP5 PUSH3 0x546 JUMP JUMPDEST POP POP POP JUMP JUMPDEST JUMPDEST DUP2 DUP2 LT ISZERO PUSH3 0x5B5 JUMPI PUSH3 0x5A9 PUSH1 0x0 DUP3 PUSH3 0x576 JUMP JUMPDEST PUSH1 0x1 DUP2 ADD SWAP1 POP PUSH3 0x593 JUMP JUMPDEST POP POP JUMP JUMPDEST PUSH1 0x1F DUP3 GT ISZERO PUSH3 0x604 JUMPI PUSH3 0x5CE DUP2 PUSH3 0x482 JUMP JUMPDEST PUSH3 0x5D9 DUP5 PUSH3 0x497 JUMP JUMPDEST DUP2 ADD PUSH1 0x20 DUP6 LT ISZERO PUSH3 0x5E9 JUMPI DUP2 SWAP1 POP JUMPDEST PUSH3 0x601 PUSH3 0x5F8 DUP6 PUSH3 0x497 JUMP JUMPDEST DUP4 ADD DUP3 PUSH3 0x592 JUMP JUMPDEST POP POP JUMPDEST POP POP POP JUMP JUMPDEST PUSH1 0x0 DUP3 DUP3 SHR SWAP1 POP SWAP3 SWAP2 POP POP JUMP JUMPDEST PUSH1 0x0 PUSH3 0x629 PUSH1 0x0 NOT DUP5 PUSH1 0x8 MUL PUSH3 0x609 JUMP JUMPDEST NOT DUP1 DUP4 AND SWAP2 POP POP SWAP3 SWAP2 POP POP JUMP JUMPDEST PUSH1 0x0 PUSH3 0x644 DUP4 DUP4 PUSH3 0x616 JUMP JUMPDEST SWAP2 POP DUP3 PUSH1 0x2 MUL DUP3 OR SWAP1 POP SWAP3 SWAP2 POP POP JUMP JUMPDEST PUSH3 0x65F DUP3 PUSH3 0x413 JUMP JUMPDEST PUSH8 0xFFFFFFFFFFFFFFFF DUP2 GT ISZERO PUSH3 0x67B JUMPI PUSH3 0x67A PUSH3 0x186 JUMP JUMPDEST JUMPDEST PUSH3 0x687 DUP3 SLOAD PUSH3 0x44D JUMP JUMPDEST PUSH3 0x694 DUP3 DUP3 DUP6 PUSH3 0x5B9 JUMP JUMPDEST PUSH1 0x0 PUSH1 0x20 SWAP1 POP PUSH1 0x1F DUP4 GT PUSH1 0x1 DUP2 EQ PUSH3 0x6CC JUMPI PUSH1 0x0 DUP5 ISZERO PUSH3 0x6B7 JUMPI DUP3 DUP8 ADD MLOAD SWAP1 POP JUMPDEST PUSH3 0x6C3 DUP6 DUP3 PUSH3 0x636 JUMP JUMPDEST DUP7 SSTORE POP PUSH3 0x733 JUMP JUMPDEST PUSH1 0x1F NOT DUP5 AND PUSH3 0x6DC DUP7 PUSH3 0x482 JUMP JUMPDEST PUSH1 0x0 JUMPDEST DUP3 DUP2 LT ISZERO PUSH3 0x706 JUMPI DUP5 DUP10 ADD MLOAD DUP3 SSTORE PUSH1 0x1 DUP3 ADD SWAP2 POP PUSH1 0x20 DUP6 ADD SWAP5 POP PUSH1 0x20 DUP2 ADD SWAP1 POP PUSH3 0x6DF JUMP JUMPDEST DUP7 DUP4 LT ISZERO PUSH3 0x726 JUMPI DUP5 DUP10 ADD MLOAD PUSH3 0x722 PUSH1 0x1F DUP10 AND DUP3 PUSH3 0x616 JUMP JUMPDEST DUP4 SSTORE POP JUMPDEST PUSH1 0x1 PUSH1 0x2 DUP9 MUL ADD DUP9 SSTORE POP POP POP JUMPDEST POP POP POP POP POP POP JUMP JUMPDEST PUSH32 0x4E487B7100000000000000000000000000000000000000000000000000000000 PUSH1 0x0 MSTORE PUSH1 0x11 PUSH1 0x4 MSTORE PUSH1 0x24 PUSH1 0x0 REVERT JUMPDEST PUSH1 0x0 DUP2 PUSH1 0x1 SHR SWAP1 POP SWAP2 SWAP1 POP JUMP JUMPDEST PUSH1 0x0 DUP1 DUP3 SWAP2 POP DUP4 SWAP1 POP JUMPDEST PUSH1 0x1 DUP6 GT ISZERO PUSH3 0x7C9 JUMPI DUP1 DUP7 DIV DUP2 GT ISZERO PUSH3 0x7A1 JUMPI PUSH3 0x7A0 PUSH3 0x73B JUMP JUMPDEST JUMPDEST PUSH1 0x1 DUP6 AND ISZERO PUSH3 0x7B1 JUMPI DUP1 DUP3 MUL SWAP2 POP JUMPDEST DUP1 DUP2 MUL SWAP1 POP PUSH3 0x7C1 DUP6 PUSH3 0x76A JUMP JUMPDEST SWAP5 POP PUSH3 0x781 JUMP JUMPDEST SWAP5 POP SWAP5 SWAP3 POP POP POP JUMP JUMPDEST PUSH1 0x0 DUP3 PUSH3 0x7E4 JUMPI PUSH1 0x1 SWAP1 POP PUSH3 0x8B7 JUMP JUMPDEST DUP2 PUSH3 0x7F4 JUMPI PUSH1 0x0 SWAP1 POP PUSH3 0x8B7 JUMP JUMPDEST DUP2 PUSH1 0x1 DUP2 EQ PUSH3 0x80D JUMPI PUSH1 0x2 DUP2 EQ PUSH3 0x818 JUMPI PUSH3 0x84E JUMP JUMPDEST PUSH1 0x1 SWAP2 POP POP PUSH3 0x8B7 JUMP JUMPDEST PUSH1 0xFF DUP5 GT ISZERO PUSH3 0x82D JUMPI PUSH3 0x82C PUSH3 0x73B JUMP JUMPDEST JUMPDEST DUP4 PUSH1 0x2 EXP SWAP2 POP DUP5 DUP3 GT ISZERO PUSH3 0x847 JUMPI PUSH3 0x846 PUSH3 0x73B JUMP JUMPDEST JUMPDEST POP PUSH3 0x8B7 JUMP JUMPDEST POP PUSH1 0x20 DUP4 LT PUSH2 0x133 DUP4 LT AND PUSH1 0x4E DUP5 LT PUSH1 0xB DUP5 LT AND OR ISZERO PUSH3 0x888 JUMPI DUP3 DUP3 EXP SWAP1 POP DUP4 DUP2 GT ISZERO PUSH3 0x882 JUMPI PUSH3 0x881 PUSH3 0x73B JUMP JUMPDEST JUMPDEST PUSH3 0x8B7 JUMP JUMPDEST PUSH3 0x897 DUP5 DUP5 DUP5 PUSH1 0x1 PUSH3 0x777 JUMP JUMPDEST SWAP3 POP SWAP1 POP DUP2 DUP5 DIV DUP2 GT ISZERO PUSH3 0x8B1 JUMPI PUSH3 0x8B0 PUSH3 0x73B JUMP JUMPDEST JUMPDEST DUP2 DUP2 MUL SWAP1 POP JUMPDEST SWAP4 SWAP3 POP POP POP JUMP JUMPDEST PUSH1 0x0 PUSH3 0x8CB DUP3 PUSH3 0x328 JUMP JUMPDEST SWAP2 POP PUSH3 0x8D8 DUP4 PUSH3 0x328 JUMP JUMPDEST SWAP3 POP PUSH3 0x907 PUSH32 0xFFFFFFFFFFFFFFFFFFFFFFFFFFFFFFFFFFFFFFFFFFFFFFFFFFFFFFFFFFFFFFFF DUP5 DUP5 PUSH3 0x7D2 JUMP JUMPDEST SWAP1 POP SWAP3 SWAP2 POP POP JUMP JUMPDEST PUSH1 0x0 PUSH3 0x91C DUP3 PUSH3 0x328 JUMP JUMPDEST SWAP2 POP PUSH3 0x929 DUP4 PUSH3 0x328 JUMP JUMPDEST SWAP3 POP DUP3 DUP3 MUL PUSH3 0x939 DUP2 PUSH3 0x328 JUMP JUMPDEST SWAP2 POP DUP3 DUP3 DIV DUP5 EQ DUP4 ISZERO OR PUSH3 0x953 JUMPI PUSH3 0x952 PUSH3 0x73B JUMP JUMPDEST JUMPDEST POP SWAP3 SWAP2 POP POP JUMP JUMPDEST PUSH1 0x0 PUSH3 0x967 DUP3 PUSH3 0x328 JUMP JUMPDEST SWAP2 POP PUSH3 0x974 DUP4 PUSH3 0x328 JUMP JUMPDEST SWAP3 POP DUP3 DUP3 SUB SWAP1 POP DUP2 DUP2 GT ISZERO PUSH3 0x98F JUMPI PUSH3 0x98E PUSH3 0x73B JUMP JUMPDEST JUMPDEST SWAP3 SWAP2 POP POP JUMP JUMPDEST PUSH2 0x19B7 DUP1 PUSH3 0x9A5 PUSH1 0x0 CODECOPY PUSH1 0x0 RETURN INVALID PUSH1 0x80 PUSH1 0x40 MSTORE PUSH1 0x4 CALLDATASIZE LT PUSH2 0xC2 JUMPI PUSH1 0x0 CALLDATALOAD PUSH1 0xE0 SHR DUP1 PUSH4 0x42966C68 GT PUSH2 0x7F JUMPI DUP1 PUSH4 0x95D89B41 GT PUSH2 0x59 JUMPI DUP1 PUSH4 0x95D89B41 EQ PUSH2 0x290 JUMPI DUP1 PUSH4 0xA4821719 EQ PUSH2 0x2BB JUMPI DUP1 PUSH4 0xA9059CBB EQ PUSH2 0x2C5 JUMPI DUP1 PUSH4 0xDD62ED3E EQ PUSH2 0x302 JUMPI PUSH2 0xC2 JUMP JUMPDEST DUP1 PUSH4 0x42966C68 EQ PUSH2 0x1EB JUMPI DUP1 PUSH4 0x70A08231 EQ PUSH2 0x228 JUMPI DUP1 PUSH4 0x912221D5 EQ PUSH2 0x265 JUMPI PUSH2 0xC2 JUMP JUMPDEST DUP1 PUSH4 0x6FDDE03 EQ PUSH2 0xC7 JUMPI DUP1 PUSH4 0x95EA7B3 EQ PUSH2 0xF2 JUMPI DUP1 PUSH4 0x17191704 EQ PUSH2 0x12F JUMPI DUP1 PUSH4 0x18160DDD EQ PUSH2 0x158 JUMPI DUP1 PUSH4 0x23B872DD EQ PUSH2 0x183 JUMPI DUP1 PUSH4 0x313CE567 EQ PUSH2 0x1C0 JUMPI JUMPDEST PUSH1 0x0 DUP1 REVERT JUMPDEST CALLVALUE DUP1 ISZERO PUSH2 0xD3 JUMPI PUSH1 0x0 DUP1 REVERT JUMPDEST POP PUSH2 0xDC PUSH2 0x33F JUMP JUMPDEST PUSH1 0x40 MLOAD PUSH2 0xE9 SWAP2 SWAP1 PUSH2 0xE63 JUMP JUMPDEST PUSH1 0x40 MLOAD DUP1 SWAP2 SUB SWAP1 RETURN JUMPDEST CALLVALUE DUP1 ISZERO PUSH2 0xFE JUMPI PUSH1 0x0 DUP1 REVERT JUMPDEST POP PUSH2 0x119 PUSH1 0x4 DUP1 CALLDATASIZE SUB DUP2 ADD SWAP1 PUSH2 0x114 SWAP2 SWAP1 PUSH2 0xF1E JUMP JUMPDEST PUSH2 0x3CD JUMP JUMPDEST PUSH1 0x40 MLOAD PUSH2 0x126 SWAP2 SWAP1 PUSH2 0xF79 JUMP JUMPDEST PUSH1 0x40 MLOAD DUP1 SWAP2 SUB SWAP1 RETURN JUMPDEST CALLVALUE DUP1 ISZERO PUSH2 0x13B JUMPI PUSH1 0x0 DUP1 REVERT JUMPDEST POP PUSH2 0x156 PUSH1 0x4 DUP1 CALLDATASIZE SUB DUP2 ADD SWAP1 PUSH2 0x151 SWAP2 SWAP1 PUSH2 0xF94 JUMP JUMPDEST PUSH2 0x3E4 JUMP JUMPDEST STOP JUMPDEST CALLVALUE DUP1 ISZERO PUSH2 0x164 JUMPI PUSH1 0x0 DUP1 REVERT JUMPDEST POP PUSH2 0x16D PUSH2 0x577 JUMP JUMPDEST PUSH1 0x40 MLOAD PUSH2 0x17A SWAP2 SWAP1 PUSH2 0xFD0 JUMP JUMPDEST PUSH1 0x40 MLOAD DUP1 SWAP2 SUB SWAP1 RETURN JUMPDEST CALLVALUE DUP1 ISZERO PUSH2 0x18F JUMPI PUSH1 0x0 DUP1 REVERT JUMPDEST POP PUSH2 0x1AA PUSH1 0x4 DUP1 CALLDATASIZE SUB DUP2 ADD SWAP1 PUSH2 0x1A5 SWAP2 SWAP1 PUSH2 0xFEB JUMP JUMPDEST PUSH2 0x581 JUMP JUMPDEST PUSH1 0x40 MLOAD PUSH2 0x1B7 SWAP2 SWAP1 PUSH2 0xF79 JUMP JUMPDEST PUSH1 0x40 MLOAD DUP1 SWAP2 SUB SWAP1 RETURN JUMPDEST CALLVALUE DUP1 ISZERO PUSH2 0x1CC JUMPI PUSH1 0x0 DUP1 REVERT JUMPDEST POP PUSH2 0x1D5 PUSH2 0x62B JUMP JUMPDEST PUSH1 0x40 MLOAD PUSH2 0x1E2 SWAP2 SWAP1 PUSH2 0x105A JUMP JUMPDEST PUSH1 0x40 MLOAD DUP1 SWAP2 SUB SWAP1 RETURN JUMPDEST CALLVALUE DUP1 ISZERO PUSH2 0x1F7 JUMPI PUSH1 0x0 DUP1 REVERT JUMPDEST POP PUSH2 0x212 PUSH1 0x4 DUP1 CALLDATASIZE SUB DUP2 ADD SWAP1 PUSH2 0x20D SWAP2 SWAP1 PUSH2 0xF94 JUMP JUMPDEST PUSH2 0x63E JUMP JUMPDEST PUSH1 0x40 MLOAD PUSH2 0x21F SWAP2 SWAP1 PUSH2 0xF79 JUMP JUMPDEST PUSH1 0x40 MLOAD DUP1 SWAP2 SUB SWAP1 RETURN JUMPDEST CALLVALUE DUP1 ISZERO PUSH2 0x234 JUMPI PUSH1 0x0 DUP1 REVERT JUMPDEST POP PUSH2 0x24F PUSH1 0x4 DUP1 CALLDATASIZE SUB DUP2 ADD SWAP1 PUSH2 0x24A SWAP2 SWAP1 PUSH2 0x1075 JUMP JUMPDEST PUSH2 0x788 JUMP JUMPDEST PUSH1 0x40 MLOAD PUSH2 0x25C SWAP2 SWAP1 PUSH2 0xFD0 JUMP JUMPDEST PUSH1 0x40 MLOAD DUP1 SWAP2 SUB SWAP1 RETURN JUMPDEST CALLVALUE DUP1 ISZERO PUSH2 0x271 JUMPI PUSH1 0x0 DUP1 REVERT JUMPDEST POP PUSH2 0x27A PUSH2 0x7D1 JUMP JUMPDEST PUSH1 0x40 MLOAD PUSH2 0x287 SWAP2 SWAP1 PUSH2 0xFD0 JUMP JUMPDEST PUSH1 0x40 MLOAD DUP1 SWAP2 SUB SWAP1 RETURN JUMPDEST CALLVALUE DUP1 ISZERO PUSH2 0x29C JUMPI PUSH1 0x0 DUP1 REVERT JUMPDEST POP PUSH2 0x2A5 PUSH2 0x7D7 JUMP JUMPDEST PUSH1 0x40 MLOAD PUSH2 0x2B2 SWAP2 SWAP1 PUSH2 0xE63 JUMP JUMPDEST PUSH1 0x40 MLOAD DUP1 SWAP2 SUB SWAP1 RETURN JUMPDEST PUSH2 0x2C3 PUSH2 0x865 JUMP JUMPDEST STOP JUMPDEST CALLVALUE DUP1 ISZERO PUSH2 0x2D1 JUMPI PUSH1 0x0 DUP1 REVERT JUMPDEST POP PUSH2 0x2EC PUSH1 0x4 DUP1 CALLDATASIZE SUB DUP2 ADD SWAP1 PUSH2 0x2E7 SWAP2 SWAP1 PUSH2 0xF1E JUMP JUMPDEST PUSH2 0x8F6 JUMP JUMPDEST PUSH1 0x40 MLOAD PUSH2 0x2F9 SWAP2 SWAP1 PUSH2 0xF79 JUMP JUMPDEST PUSH1 0x40 MLOAD DUP1 SWAP2 SUB SWAP1 RETURN JUMPDEST CALLVALUE DUP1 ISZERO PUSH2 0x30E JUMPI PUSH1 0x0 DUP1 REVERT JUMPDEST POP PUSH2 0x329 PUSH1 0x4 DUP1 CALLDATASIZE SUB DUP2 ADD SWAP1 PUSH2 0x324 SWAP2 SWAP1 PUSH2 0x10A2 JUMP JUMPDEST PUSH2 0x90D JUMP JUMPDEST PUSH1 0x40 MLOAD PUSH2 0x336 SWAP2 SWAP1 PUSH2 0xFD0 JUMP JUMPDEST PUSH1 0x40 MLOAD DUP1 SWAP2 SUB SWAP1 RETURN JUMPDEST PUSH1 0x0 DUP1 SLOAD PUSH2 0x34C SWAP1 PUSH2 0x1111 JUMP JUMPDEST DUP1 PUSH1 0x1F ADD PUSH1 0x20 DUP1 SWAP2 DIV MUL PUSH1 0x20 ADD PUSH1 0x40 MLOAD SWAP1 DUP2 ADD PUSH1 0x40 MSTORE DUP1 SWAP3 SWAP2 SWAP1 DUP2 DUP2 MSTORE PUSH1 0x20 ADD DUP3 DUP1 SLOAD PUSH2 0x378 SWAP1 PUSH2 0x1111 JUMP JUMPDEST DUP1 ISZERO PUSH2 0x3C5 JUMPI DUP1 PUSH1 0x1F LT PUSH2 0x39A JUMPI PUSH2 0x100 DUP1 DUP4 SLOAD DIV MUL DUP4 MSTORE SWAP2 PUSH1 0x20 ADD SWAP2 PUSH2 0x3C5 JUMP JUMPDEST DUP3 ADD SWAP2 SWAP1 PUSH1 0x0 MSTORE PUSH1 0x20 PUSH1 0x0 KECCAK256 SWAP1 JUMPDEST DUP2 SLOAD DUP2 MSTORE SWAP1 PUSH1 0x1 ADD SWAP1 PUSH1 0x20 ADD DUP1 DUP4 GT PUSH2 0x3A8 JUMPI DUP3 SWAP1 SUB PUSH1 0x1F AND DUP3 ADD SWAP2 JUMPDEST POP POP POP POP POP DUP2 JUMP JUMPDEST PUSH1 0x0 PUSH2 0x3DA CALLER DUP5 DUP5 PUSH2 0x994 JUMP JUMPDEST PUSH1 0x1 SWAP1 POP SWAP3 SWAP2 POP POP JUMP JUMPDEST PUSH1 0x0 PUSH1 0x3 SLOAD DUP3 PUSH2 0x3F4 SWAP2 SWAP1 PUSH2 0x1171 JUMP JUMPDEST SWAP1 POP DUP1 SELFBALANCE LT ISZERO PUSH2 0x439 JUMPI PUSH1 0x40 MLOAD PUSH32 0x8C379A000000000000000000000000000000000000000000000000000000000 DUP2 MSTORE PUSH1 0x4 ADD PUSH2 0x430 SWAP1 PUSH2 0x1225 JUMP JUMPDEST PUSH1 0x40 MLOAD DUP1 SWAP2 SUB SWAP1 REVERT JUMPDEST DUP2 PUSH1 0x5 PUSH1 0x0 CALLER PUSH20 0xFFFFFFFFFFFFFFFFFFFFFFFFFFFFFFFFFFFFFFFF AND PUSH20 0xFFFFFFFFFFFFFFFFFFFFFFFFFFFFFFFFFFFFFFFF AND DUP2 MSTORE PUSH1 0x20 ADD SWAP1 DUP2 MSTORE PUSH1 0x20 ADD PUSH1 0x0 KECCAK256 SLOAD LT ISZERO PUSH2 0x4BB JUMPI PUSH1 0x40 MLOAD PUSH32 0x8C379A000000000000000000000000000000000000000000000000000000000 DUP2 MSTORE PUSH1 0x4 ADD PUSH2 0x4B2 SWAP1 PUSH2 0x1291 JUMP JUMPDEST PUSH1 0x40 MLOAD DUP1 SWAP2 SUB SWAP1 REVERT JUMPDEST PUSH2 0x4C6 CALLER ADDRESS DUP5 PUSH2 0xB5D JUMP JUMPDEST PUSH1 0x0 CALLER PUSH20 0xFFFFFFFFFFFFFFFFFFFFFFFFFFFFFFFFFFFFFFFF AND DUP3 PUSH1 0x40 MLOAD PUSH2 0x4EC SWAP1 PUSH2 0x12E2 JUMP JUMPDEST PUSH1 0x0 PUSH1 0x40 MLOAD DUP1 DUP4 SUB DUP2 DUP6 DUP8 GAS CALL SWAP3 POP POP POP RETURNDATASIZE DUP1 PUSH1 0x0 DUP2 EQ PUSH2 0x529 JUMPI PUSH1 0x40 MLOAD SWAP2 POP PUSH1 0x1F NOT PUSH1 0x3F RETURNDATASIZE ADD AND DUP3 ADD PUSH1 0x40 MSTORE RETURNDATASIZE DUP3 MSTORE RETURNDATASIZE PUSH1 0x0 PUSH1 0x20 DUP5 ADD RETURNDATACOPY PUSH2 0x52E JUMP JUMPDEST PUSH1 0x60 SWAP2 POP JUMPDEST POP POP SWAP1 POP DUP1 PUSH2 0x572 JUMPI PUSH1 0x40 MLOAD PUSH32 0x8C379A000000000000000000000000000000000000000000000000000000000 DUP2 MSTORE PUSH1 0x4 ADD PUSH2 0x569 SWAP1 PUSH2 0x1343 JUMP JUMPDEST PUSH1 0x40 MLOAD DUP1 SWAP2 SUB SWAP1 REVERT JUMPDEST POP POP POP JUMP JUMPDEST PUSH1 0x0 PUSH1 0x4 SLOAD SWAP1 POP SWAP1 JUMP JUMPDEST PUSH1 0x0 PUSH2 0x58E DUP5 DUP5 DUP5 PUSH2 0xB5D JUMP JUMPDEST PUSH2 0x620 DUP5 CALLER DUP5 PUSH1 0x6 PUSH1 0x0 DUP10 PUSH20 0xFFFFFFFFFFFFFFFFFFFFFFFFFFFFFFFFFFFFFFFF AND PUSH20 0xFFFFFFFFFFFFFFFFFFFFFFFFFFFFFFFFFFFFFFFF AND DUP2 MSTORE PUSH1 0x20 ADD SWAP1 DUP2 MSTORE PUSH1 0x20 ADD PUSH1 0x0 KECCAK256 PUSH1 0x0 CALLER PUSH20 0xFFFFFFFFFFFFFFFFFFFFFFFFFFFFFFFFFFFFFFFF AND PUSH20 0xFFFFFFFFFFFFFFFFFFFFFFFFFFFFFFFFFFFFFFFF AND DUP2 MSTORE PUSH1 0x20 ADD SWAP1 DUP2 MSTORE PUSH1 0x20 ADD PUSH1 0x0 KECCAK256 SLOAD PUSH2 0x61B SWAP2 SWAP1 PUSH2 0x1363 JUMP JUMPDEST PUSH2 0x994 JUMP JUMPDEST PUSH1 0x1 SWAP1 POP SWAP4 SWAP3 POP POP POP JUMP JUMPDEST PUSH1 0x2 PUSH1 0x0 SWAP1 SLOAD SWAP1 PUSH2 0x100 EXP SWAP1 DIV PUSH1 0xFF AND DUP2 JUMP JUMPDEST PUSH1 0x0 DUP2 PUSH1 0x5 PUSH1 0x0 CALLER PUSH20 0xFFFFFFFFFFFFFFFFFFFFFFFFFFFFFFFFFFFFFFFF AND PUSH20 0xFFFFFFFFFFFFFFFFFFFFFFFFFFFFFFFFFFFFFFFF AND DUP2 MSTORE PUSH1 0x20 ADD SWAP1 DUP2 MSTORE PUSH1 0x20 ADD PUSH1 0x0 KECCAK256 SLOAD LT ISZERO PUSH2 0x6C2 JUMPI PUSH1 0x40 MLOAD PUSH32 0x8C379A000000000000000000000000000000000000000000000000000000000 DUP2 MSTORE PUSH1 0x4 ADD PUSH2 0x6B9 SWAP1 PUSH2 0x13E3 JUMP JUMPDEST PUSH1 0x40 MLOAD DUP1 SWAP2 SUB SWAP1 REVERT JUMPDEST DUP2 PUSH1 0x5 PUSH1 0x0 CALLER PUSH20 0xFFFFFFFFFFFFFFFFFFFFFFFFFFFFFFFFFFFFFFFF AND PUSH20 0xFFFFFFFFFFFFFFFFFFFFFFFFFFFFFFFFFFFFFFFF AND DUP2 MSTORE PUSH1 0x20 ADD SWAP1 DUP2 MSTORE PUSH1 0x20 ADD PUSH1 0x0 KECCAK256 PUSH1 0x0 DUP3 DUP3 SLOAD PUSH2 0x711 SWAP2 SWAP1 PUSH2 0x1363 JUMP JUMPDEST SWAP3 POP POP DUP2 SWAP1 SSTORE POP DUP2 PUSH1 0x4 PUSH1 0x0 DUP3 DUP3 SLOAD PUSH2 0x72A SWAP2 SWAP1 PUSH2 0x1363 JUMP JUMPDEST SWAP3 POP POP DUP2 SWAP1 SSTORE POP CALLER PUSH20 0xFFFFFFFFFFFFFFFFFFFFFFFFFFFFFFFFFFFFFFFF AND PUSH32 0xCC16F5DBB4873280815C1EE09DBD06736CFFCC184412CF7A71A0FDB75D397CA5 DUP4 PUSH1 0x40 MLOAD PUSH2 0x777 SWAP2 SWAP1 PUSH2 0xFD0 JUMP JUMPDEST PUSH1 0x40 MLOAD DUP1 SWAP2 SUB SWAP1 LOG2 PUSH1 0x1 SWAP1 POP SWAP2 SWAP1 POP JUMP JUMPDEST PUSH1 0x0 PUSH1 0x5 PUSH1 0x0 DUP4 PUSH20 0xFFFFFFFFFFFFFFFFFFFFFFFFFFFFFFFFFFFFFFFF AND PUSH20 0xFFFFFFFFFFFFFFFFFFFFFFFFFFFFFFFFFFFFFFFF AND DUP2 MSTORE PUSH1 0x20 ADD SWAP1 DUP2 MSTORE PUSH1 0x20 ADD PUSH1 0x0 KECCAK256 SLOAD SWAP1 POP SWAP2 SWAP1 POP JUMP JUMPDEST PUSH1 0x3 SLOAD DUP2 JUMP JUMPDEST PUSH1 0x1 DUP1 SLOAD PUSH2 0x7E4 SWAP1 PUSH2 0x1111 JUMP JUMPDEST DUP1 PUSH1 0x1F ADD PUSH1 0x20 DUP1 SWAP2 DIV MUL PUSH1 0x20 ADD PUSH1 0x40 MLOAD SWAP1 DUP2 ADD PUSH1 0x40 MSTORE DUP1 SWAP3 SWAP2 SWAP1 DUP2 DUP2 MSTORE PUSH1 0x20 ADD DUP3 DUP1 SLOAD PUSH2 0x810 SWAP1 PUSH2 0x1111 JUMP JUMPDEST DUP1 ISZERO PUSH2 0x85D JUMPI DUP1 PUSH1 0x1F LT PUSH2 0x832 JUMPI PUSH2 0x100 DUP1 DUP4 SLOAD DIV MUL DUP4 MSTORE SWAP2 PUSH1 0x20 ADD SWAP2 PUSH2 0x85D JUMP JUMPDEST DUP3 ADD SWAP2 SWAP1 PUSH1 0x0 MSTORE PUSH1 0x20 PUSH1 0x0 KECCAK256 SWAP1 JUMPDEST DUP2 SLOAD DUP2 MSTORE SWAP1 PUSH1 0x1 ADD SWAP1 PUSH1 0x20 ADD DUP1 DUP4 GT PUSH2 0x840 JUMPI DUP3 SWAP1 SUB PUSH1 0x1F AND DUP3 ADD SWAP2 JUMPDEST POP POP POP POP POP DUP2 JUMP JUMPDEST PUSH1 0x3 SLOAD CALLVALUE LT ISZERO PUSH2 0x8AA JUMPI PUSH1 0x40 MLOAD PUSH32 0x8C379A000000000000000000000000000000000000000000000000000000000 DUP2 MSTORE PUSH1 0x4 ADD PUSH2 0x8A1 SWAP1 PUSH2 0x1475 JUMP JUMPDEST PUSH1 0x40 MLOAD DUP1 SWAP2 SUB SWAP1 REVERT JUMPDEST PUSH1 0x0 PUSH1 0x3 SLOAD CALLVALUE PUSH2 0x8BA SWAP2 SWAP1 PUSH2 0x14C4 JUMP JUMPDEST SWAP1 POP PUSH1 0x2 PUSH1 0x0 SWAP1 SLOAD SWAP1 PUSH2 0x100 EXP SWAP1 DIV PUSH1 0xFF AND PUSH1 0xFF AND PUSH1 0xA PUSH2 0x8DB SWAP2 SWAP1 PUSH2 0x1628 JUMP JUMPDEST DUP2 PUSH2 0x8E6 SWAP2 SWAP1 PUSH2 0x1171 JUMP JUMPDEST SWAP1 POP PUSH2 0x8F3 ADDRESS CALLER DUP4 PUSH2 0xB5D JUMP JUMPDEST POP JUMP JUMPDEST PUSH1 0x0 PUSH2 0x903 CALLER DUP5 DUP5 PUSH2 0xB5D JUMP JUMPDEST PUSH1 0x1 SWAP1 POP SWAP3 SWAP2 POP POP JUMP JUMPDEST PUSH1 0x0 PUSH1 0x6 PUSH1 0x0 DUP5 PUSH20 0xFFFFFFFFFFFFFFFFFFFFFFFFFFFFFFFFFFFFFFFF AND PUSH20 0xFFFFFFFFFFFFFFFFFFFFFFFFFFFFFFFFFFFFFFFF AND DUP2 MSTORE PUSH1 0x20 ADD SWAP1 DUP2 MSTORE PUSH1 0x20 ADD PUSH1 0x0 KECCAK256 PUSH1 0x0 DUP4 PUSH20 0xFFFFFFFFFFFFFFFFFFFFFFFFFFFFFFFFFFFFFFFF AND PUSH20 0xFFFFFFFFFFFFFFFFFFFFFFFFFFFFFFFFFFFFFFFF AND DUP2 MSTORE PUSH1 0x20 ADD SWAP1 DUP2 MSTORE PUSH1 0x20 ADD PUSH1 0x0 KECCAK256 SLOAD SWAP1 POP SWAP3 SWAP2 POP POP JUMP JUMPDEST PUSH1 0x0 PUSH20 0xFFFFFFFFFFFFFFFFFFFFFFFFFFFFFFFFFFFFFFFF AND DUP4 PUSH20 0xFFFFFFFFFFFFFFFFFFFFFFFFFFFFFFFFFFFFFFFF AND SUB PUSH2 0xA03 JUMPI PUSH1 0x40 MLOAD PUSH32 0x8C379A000000000000000000000000000000000000000000000000000000000 DUP2 MSTORE PUSH1 0x4 ADD PUSH2 0x9FA SWAP1 PUSH2 0x16E5 JUMP JUMPDEST PUSH1 0x40 MLOAD DUP1 SWAP2 SUB SWAP1 REVERT JUMPDEST PUSH1 0x0 PUSH20 0xFFFFFFFFFFFFFFFFFFFFFFFFFFFFFFFFFFFFFFFF AND DUP3 PUSH20 0xFFFFFFFFFFFFFFFFFFFFFFFFFFFFFFFFFFFFFFFF AND SUB PUSH2 0xA72 JUMPI PUSH1 0x40 MLOAD PUSH32 0x8C379A000000000000000000000000000000000000000000000000000000000 DUP2 MSTORE PUSH1 0x4 ADD PUSH2 0xA69 SWAP1 PUSH2 0x1777 JUMP JUMPDEST PUSH1 0x40 MLOAD DUP1 SWAP2 SUB SWAP1 REVERT JUMPDEST DUP1 PUSH1 0x6 PUSH1 0x0 DUP6 PUSH20 0xFFFFFFFFFFFFFFFFFFFFFFFFFFFFFFFFFFFFFFFF AND PUSH20 0xFFFFFFFFFFFFFFFFFFFFFFFFFFFFFFFFFFFFFFFF AND DUP2 MSTORE PUSH1 0x20 ADD SWAP1 DUP2 MSTORE PUSH1 0x20 ADD PUSH1 0x0 KECCAK256 PUSH1 0x0 DUP5 PUSH20 0xFFFFFFFFFFFFFFFFFFFFFFFFFFFFFFFFFFFFFFFF AND PUSH20 0xFFFFFFFFFFFFFFFFFFFFFFFFFFFFFFFFFFFFFFFF AND DUP2 MSTORE PUSH1 0x20 ADD SWAP1 DUP2 MSTORE PUSH1 0x20 ADD PUSH1 0x0 KECCAK256 DUP2 SWAP1 SSTORE POP DUP2 PUSH20 0xFFFFFFFFFFFFFFFFFFFFFFFFFFFFFFFFFFFFFFFF AND DUP4 PUSH20 0xFFFFFFFFFFFFFFFFFFFFFFFFFFFFFFFFFFFFFFFF AND PUSH32 0x8C5BE1E5EBEC7D5BD14F71427D1E84F3DD0314C0F7B2291E5B200AC8C7C3B925 DUP4 PUSH1 0x40 MLOAD PUSH2 0xB50 SWAP2 SWAP1 PUSH2 0xFD0 JUMP JUMPDEST PUSH1 0x40 MLOAD DUP1 SWAP2 SUB SWAP1 LOG3 POP POP POP JUMP JUMPDEST PUSH1 0x0 PUSH20 0xFFFFFFFFFFFFFFFFFFFFFFFFFFFFFFFFFFFFFFFF AND DUP4 PUSH20 0xFFFFFFFFFFFFFFFFFFFFFFFFFFFFFFFFFFFFFFFF AND SUB PUSH2 0xBCC JUMPI PUSH1 0x40 MLOAD PUSH32 0x8C379A000000000000000000000000000000000000000000000000000000000 DUP2 MSTORE PUSH1 0x4 ADD PUSH2 0xBC3 SWAP1 PUSH2 0x1809 JUMP JUMPDEST PUSH1 0x40 MLOAD DUP1 SWAP2 SUB SWAP1 REVERT JUMPDEST PUSH1 0x0 PUSH20 0xFFFFFFFFFFFFFFFFFFFFFFFFFFFFFFFFFFFFFFFF AND DUP3 PUSH20 0xFFFFFFFFFFFFFFFFFFFFFFFFFFFFFFFFFFFFFFFF AND SUB PUSH2 0xC3B JUMPI PUSH1 0x40 MLOAD PUSH32 0x8C379A000000000000000000000000000000000000000000000000000000000 DUP2 MSTORE PUSH1 0x4 ADD PUSH2 0xC32 SWAP1 PUSH2 0x189B JUMP JUMPDEST PUSH1 0x40 MLOAD DUP1 SWAP2 SUB SWAP1 REVERT JUMPDEST DUP1 PUSH1 0x5 PUSH1 0x0 DUP6 PUSH20 0xFFFFFFFFFFFFFFFFFFFFFFFFFFFFFFFFFFFFFFFF AND PUSH20 0xFFFFFFFFFFFFFFFFFFFFFFFFFFFFFFFFFFFFFFFF AND DUP2 MSTORE PUSH1 0x20 ADD SWAP1 DUP2 MSTORE PUSH1 0x20 ADD PUSH1 0x0 KECCAK256 SLOAD LT ISZERO PUSH2 0xCBD JUMPI PUSH1 0x40 MLOAD PUSH32 0x8C379A000000000000000000000000000000000000000000000000000000000 DUP2 MSTORE PUSH1 0x4 ADD PUSH2 0xCB4 SWAP1 PUSH2 0x192D JUMP JUMPDEST PUSH1 0x40 MLOAD DUP1 SWAP2 SUB SWAP1 REVERT JUMPDEST DUP1 PUSH1 0x5 PUSH1 0x0 DUP6 PUSH20 0xFFFFFFFFFFFFFFFFFFFFFFFFFFFFFFFFFFFFFFFF AND PUSH20 0xFFFFFFFFFFFFFFFFFFFFFFFFFFFFFFFFFFFFFFFF AND DUP2 MSTORE PUSH1 0x20 ADD SWAP1 DUP2 MSTORE PUSH1 0x20 ADD PUSH1 0x0 KECCAK256 PUSH1 0x0 DUP3 DUP3 SLOAD PUSH2 0xD0C SWAP2 SWAP1 PUSH2 0x1363 JUMP JUMPDEST SWAP3 POP POP DUP2 SWAP1 SSTORE POP DUP1 PUSH1 0x5 PUSH1 0x0 DUP5 PUSH20 0xFFFFFFFFFFFFFFFFFFFFFFFFFFFFFFFFFFFFFFFF AND PUSH20 0xFFFFFFFFFFFFFFFFFFFFFFFFFFFFFFFFFFFFFFFF AND DUP2 MSTORE PUSH1 0x20 ADD SWAP1 DUP2 MSTORE PUSH1 0x20 ADD PUSH1 0x0 KECCAK256 PUSH1 0x0 DUP3 DUP3 SLOAD PUSH2 0xD62 SWAP2 SWAP1 PUSH2 0x194D JUMP JUMPDEST SWAP3 POP POP DUP2 SWAP1 SSTORE POP DUP2 PUSH20 0xFFFFFFFFFFFFFFFFFFFFFFFFFFFFFFFFFFFFFFFF AND DUP4 PUSH20 0xFFFFFFFFFFFFFFFFFFFFFFFFFFFFFFFFFFFFFFFF AND PUSH32 0xDDF252AD1BE2C89B69C2B068FC378DAA952BA7F163C4A11628F55A4DF523B3EF DUP4 PUSH1 0x40 MLOAD PUSH2 0xDC6 SWAP2 SWAP1 PUSH2 0xFD0 JUMP JUMPDEST PUSH1 0x40 MLOAD DUP1 SWAP2 SUB SWAP1 LOG3 POP POP POP JUMP JUMPDEST PUSH1 0x0 DUP2 MLOAD SWAP1 POP SWAP2 SWAP1 POP JUMP JUMPDEST PUSH1 0x0 DUP3 DUP3 MSTORE PUSH1 0x20 DUP3 ADD SWAP1 POP SWAP3 SWAP2 POP POP JUMP JUMPDEST PUSH1 0x0 JUMPDEST DUP4 DUP2 LT ISZERO PUSH2 0xE0D JUMPI DUP1 DUP3 ADD MLOAD DUP2 DUP5 ADD MSTORE PUSH1 0x20 DUP2 ADD SWAP1 POP PUSH2 0xDF2 JUMP JUMPDEST PUSH1 0x0 DUP5 DUP5 ADD MSTORE POP POP POP POP JUMP JUMPDEST PUSH1 0x0 PUSH1 0x1F NOT PUSH1 0x1F DUP4 ADD AND SWAP1 POP SWAP2 SWAP1 POP JUMP JUMPDEST PUSH1 0x0 PUSH2 0xE35 DUP3 PUSH2 0xDD3 JUMP JUMPDEST PUSH2 0xE3F DUP2 DUP6 PUSH2 0xDDE JUMP JUMPDEST SWAP4 POP PUSH2 0xE4F DUP2 DUP6 PUSH1 0x20 DUP7 ADD PUSH2 0xDEF JUMP JUMPDEST PUSH2 0xE58 DUP2 PUSH2 0xE19 JUMP JUMPDEST DUP5 ADD SWAP2 POP POP SWAP3 SWAP2 POP POP JUMP JUMPDEST PUSH1 0x0 PUSH1 0x20 DUP3 ADD SWAP1 POP DUP2 DUP2 SUB PUSH1 0x0 DUP4 ADD MSTORE PUSH2 0xE7D DUP2 DUP5 PUSH2 0xE2A JUMP JUMPDEST SWAP1 POP SWAP3 SWAP2 POP POP JUMP JUMPDEST PUSH1 0x0 DUP1 REVERT JUMPDEST PUSH1 0x0 PUSH20 0xFFFFFFFFFFFFFFFFFFFFFFFFFFFFFFFFFFFFFFFF DUP3 AND SWAP1 POP SWAP2 SWAP1 POP JUMP JUMPDEST PUSH1 0x0 PUSH2 0xEB5 DUP3 PUSH2 0xE8A JUMP JUMPDEST SWAP1 POP SWAP2 SWAP1 POP JUMP JUMPDEST PUSH2 0xEC5 DUP2 PUSH2 0xEAA JUMP JUMPDEST DUP2 EQ PUSH2 0xED0 JUMPI PUSH1 0x0 DUP1 REVERT JUMPDEST POP JUMP JUMPDEST PUSH1 0x0 DUP2 CALLDATALOAD SWAP1 POP PUSH2 0xEE2 DUP2 PUSH2 0xEBC JUMP JUMPDEST SWAP3 SWAP2 POP POP JUMP JUMPDEST PUSH1 0x0 DUP2 SWAP1 POP SWAP2 SWAP1 POP JUMP JUMPDEST PUSH2 0xEFB DUP2 PUSH2 0xEE8 JUMP JUMPDEST DUP2 EQ PUSH2 0xF06 JUMPI PUSH1 0x0 DUP1 REVERT JUMPDEST POP JUMP JUMPDEST PUSH1 0x0 DUP2 CALLDATALOAD SWAP1 POP PUSH2 0xF18 DUP2 PUSH2 0xEF2 JUMP JUMPDEST SWAP3 SWAP2 POP POP JUMP JUMPDEST PUSH1 0x0 DUP1 PUSH1 0x40 DUP4 DUP6 SUB SLT ISZERO PUSH2 0xF35 JUMPI PUSH2 0xF34 PUSH2 0xE85 JUMP JUMPDEST JUMPDEST PUSH1 0x0 PUSH2 0xF43 DUP6 DUP3 DUP7 ADD PUSH2 0xED3 JUMP JUMPDEST SWAP3 POP POP PUSH1 0x20 PUSH2 0xF54 DUP6 DUP3 DUP7 ADD PUSH2 0xF09 JUMP JUMPDEST SWAP2 POP POP SWAP3 POP SWAP3 SWAP1 POP JUMP JUMPDEST PUSH1 0x0 DUP2 ISZERO ISZERO SWAP1 POP SWAP2 SWAP1 POP JUMP JUMPDEST PUSH2 0xF73 DUP2 PUSH2 0xF5E JUMP JUMPDEST DUP3 MSTORE POP POP JUMP JUMPDEST PUSH1 0x0 PUSH1 0x20 DUP3 ADD SWAP1 POP PUSH2 0xF8E PUSH1 0x0 DUP4 ADD DUP5 PUSH2 0xF6A JUMP JUMPDEST SWAP3 SWAP2 POP POP JUMP JUMPDEST PUSH1 0x0 PUSH1 0x20 DUP3 DUP5 SUB SLT ISZERO PUSH2 0xFAA JUMPI PUSH2 0xFA9 PUSH2 0xE85 JUMP JUMPDEST JUMPDEST PUSH1 0x0 PUSH2 0xFB8 DUP5 DUP3 DUP6 ADD PUSH2 0xF09 JUMP JUMPDEST SWAP2 POP POP SWAP3 SWAP2 POP POP JUMP JUMPDEST PUSH2 0xFCA DUP2 PUSH2 0xEE8 JUMP JUMPDEST DUP3 MSTORE POP POP JUMP JUMPDEST PUSH1 0x0 PUSH1 0x20 DUP3 ADD SWAP1 POP PUSH2 0xFE5 PUSH1 0x0 DUP4 ADD DUP5 PUSH2 0xFC1 JUMP JUMPDEST SWAP3 SWAP2 POP POP JUMP JUMPDEST PUSH1 0x0 DUP1 PUSH1 0x0 PUSH1 0x60 DUP5 DUP7 SUB SLT ISZERO PUSH2 0x1004 JUMPI PUSH2 0x1003 PUSH2 0xE85 JUMP JUMPDEST JUMPDEST PUSH1 0x0 PUSH2 0x1012 DUP7 DUP3 DUP8 ADD PUSH2 0xED3 JUMP JUMPDEST SWAP4 POP POP PUSH1 0x20 PUSH2 0x1023 DUP7 DUP3 DUP8 ADD PUSH2 0xED3 JUMP JUMPDEST SWAP3 POP POP PUSH1 0x40 PUSH2 0x1034 DUP7 DUP3 DUP8 ADD PUSH2 0xF09 JUMP JUMPDEST SWAP2 POP POP SWAP3 POP SWAP3 POP SWAP3 JUMP JUMPDEST PUSH1 0x0 PUSH1 0xFF DUP3 AND SWAP1 POP SWAP2 SWAP1 POP JUMP JUMPDEST PUSH2 0x1054 DUP2 PUSH2 0x103E JUMP JUMPDEST DUP3 MSTORE POP POP JUMP JUMPDEST PUSH1 0x0 PUSH1 0x20 DUP3 ADD SWAP1 POP PUSH2 0x106F PUSH1 0x0 DUP4 ADD DUP5 PUSH2 0x104B JUMP JUMPDEST SWAP3 SWAP2 POP POP JUMP JUMPDEST PUSH1 0x0 PUSH1 0x20 DUP3 DUP5 SUB SLT ISZERO PUSH2 0x108B JUMPI PUSH2 0x108A PUSH2 0xE85 JUMP JUMPDEST JUMPDEST PUSH1 0x0 PUSH2 0x1099 DUP5 DUP3 DUP6 ADD PUSH2 0xED3 JUMP JUMPDEST SWAP2 POP POP SWAP3 SWAP2 POP POP JUMP JUMPDEST PUSH1 0x0 DUP1 PUSH1 0x40 DUP4 DUP6 SUB SLT ISZERO PUSH2 0x10B9 JUMPI PUSH2 0x10B8 PUSH2 0xE85 JUMP JUMPDEST JUMPDEST PUSH1 0x0 PUSH2 0x10C7 DUP6 DUP3 DUP7 ADD PUSH2 0xED3 JUMP JUMPDEST SWAP3 POP POP PUSH1 0x20 PUSH2 0x10D8 DUP6 DUP3 DUP7 ADD PUSH2 0xED3 JUMP JUMPDEST SWAP2 POP POP SWAP3 POP SWAP3 SWAP1 POP JUMP JUMPDEST PUSH32 0x4E487B7100000000000000000000000000000000000000000000000000000000 PUSH1 0x0 MSTORE PUSH1 0x22 PUSH1 0x4 MSTORE PUSH1 0x24 PUSH1 0x0 REVERT JUMPDEST PUSH1 0x0 PUSH1 0x2 DUP3 DIV SWAP1 POP PUSH1 0x1 DUP3 AND DUP1 PUSH2 0x1129 JUMPI PUSH1 0x7F DUP3 AND SWAP2 POP JUMPDEST PUSH1 0x20 DUP3 LT DUP2 SUB PUSH2 0x113C JUMPI PUSH2 0x113B PUSH2 0x10E2 JUMP JUMPDEST JUMPDEST POP SWAP2 SWAP1 POP JUMP JUMPDEST PUSH32 0x4E487B7100000000000000000000000000000000000000000000000000000000 PUSH1 0x0 MSTORE PUSH1 0x11 PUSH1 0x4 MSTORE PUSH1 0x24 PUSH1 0x0 REVERT JUMPDEST PUSH1 0x0 PUSH2 0x117C DUP3 PUSH2 0xEE8 JUMP JUMPDEST SWAP2 POP PUSH2 0x1187 DUP4 PUSH2 0xEE8 JUMP JUMPDEST SWAP3 POP DUP3 DUP3 MUL PUSH2 0x1195 DUP2 PUSH2 0xEE8 JUMP JUMPDEST SWAP2 POP DUP3 DUP3 DIV DUP5 EQ DUP4 ISZERO OR PUSH2 0x11AC JUMPI PUSH2 0x11AB PUSH2 0x1142 JUMP JUMPDEST JUMPDEST POP SWAP3 SWAP2 POP POP JUMP JUMPDEST PUSH32 0x436F6E74726163742068617320696E73756666696369656E742062616C616E63 PUSH1 0x0 DUP3 ADD MSTORE PUSH32 0x6500000000000000000000000000000000000000000000000000000000000000 PUSH1 0x20 DUP3 ADD MSTORE POP JUMP JUMPDEST PUSH1 0x0 PUSH2 0x120F PUSH1 0x21 DUP4 PUSH2 0xDDE JUMP JUMPDEST SWAP2 POP PUSH2 0x121A DUP3 PUSH2 0x11B3 JUMP JUMPDEST PUSH1 0x40 DUP3 ADD SWAP1 POP SWAP2 SWAP1 POP JUMP JUMPDEST PUSH1 0x0 PUSH1 0x20 DUP3 ADD SWAP1 POP DUP2 DUP2 SUB PUSH1 0x0 DUP4 ADD MSTORE PUSH2 0x123E DUP2 PUSH2 0x1202 JUMP JUMPDEST SWAP1 POP SWAP2 SWAP1 POP JUMP JUMPDEST PUSH32 0x496E73756666696369656E7420746F6B656E2062616C616E6365000000000000 PUSH1 0x0 DUP3 ADD MSTORE POP JUMP JUMPDEST PUSH1 0x0 PUSH2 0x127B PUSH1 0x1A DUP4 PUSH2 0xDDE JUMP JUMPDEST SWAP2 POP PUSH2 0x1286 DUP3 PUSH2 0x1245 JUMP JUMPDEST PUSH1 0x20 DUP3 ADD SWAP1 POP SWAP2 SWAP1 POP JUMP JUMPDEST PUSH1 0x0 PUSH1 0x20 DUP3 ADD SWAP1 POP DUP2 DUP2 SUB PUSH1 0x0 DUP4 ADD MSTORE PUSH2 0x12AA DUP2 PUSH2 0x126E JUMP JUMPDEST SWAP1 POP SWAP2 SWAP1 POP JUMP JUMPDEST PUSH1 0x0 DUP2 SWAP1 POP SWAP3 SWAP2 POP POP JUMP JUMPDEST POP JUMP JUMPDEST PUSH1 0x0 PUSH2 0x12CC PUSH1 0x0 DUP4 PUSH2 0x12B1 JUMP JUMPDEST SWAP2 POP PUSH2 0x12D7 DUP3 PUSH2 0x12BC JUMP JUMPDEST PUSH1 0x0 DUP3 ADD SWAP1 POP SWAP2 SWAP1 POP JUMP JUMPDEST PUSH1 0x0 PUSH2 0x12ED DUP3 PUSH2 0x12BF JUMP JUMPDEST SWAP2 POP DUP2 SWAP1 POP SWAP2 SWAP1 POP JUMP JUMPDEST PUSH32 0x455448207472616E73666572206661696C656400000000000000000000000000 PUSH1 0x0 DUP3 ADD MSTORE POP JUMP JUMPDEST PUSH1 0x0 PUSH2 0x132D PUSH1 0x13 DUP4 PUSH2 0xDDE JUMP JUMPDEST SWAP2 POP PUSH2 0x1338 DUP3 PUSH2 0x12F7 JUMP JUMPDEST PUSH1 0x20 DUP3 ADD SWAP1 POP SWAP2 SWAP1 POP JUMP JUMPDEST PUSH1 0x0 PUSH1 0x20 DUP3 ADD SWAP1 POP DUP2 DUP2 SUB PUSH1 0x0 DUP4 ADD MSTORE PUSH2 0x135C DUP2 PUSH2 0x1320 JUMP JUMPDEST SWAP1 POP SWAP2 SWAP1 POP JUMP JUMPDEST PUSH1 0x0 PUSH2 0x136E DUP3 PUSH2 0xEE8 JUMP JUMPDEST SWAP2 POP PUSH2 0x1379 DUP4 PUSH2 0xEE8 JUMP JUMPDEST SWAP3 POP DUP3 DUP3 SUB SWAP1 POP DUP2 DUP2 GT ISZERO PUSH2 0x1391 JUMPI PUSH2 0x1390 PUSH2 0x1142 JUMP JUMPDEST JUMPDEST SWAP3 SWAP2 POP POP JUMP JUMPDEST PUSH32 0x496E73756666696369656E742062616C616E6365000000000000000000000000 PUSH1 0x0 DUP3 ADD MSTORE POP JUMP JUMPDEST PUSH1 0x0 PUSH2 0x13CD PUSH1 0x14 DUP4 PUSH2 0xDDE JUMP JUMPDEST SWAP2 POP PUSH2 0x13D8 DUP3 PUSH2 0x1397 JUMP JUMPDEST PUSH1 0x20 DUP3 ADD SWAP1 POP SWAP2 SWAP1 POP JUMP JUMPDEST PUSH1 0x0 PUSH1 0x20 DUP3 ADD SWAP1 POP DUP2 DUP2 SUB PUSH1 0x0 DUP4 ADD MSTORE PUSH2 0x13FC DUP2 PUSH2 0x13C0 JUMP JUMPDEST SWAP1 POP SWAP2 SWAP1 POP JUMP JUMPDEST PUSH32 0x4E6F7420656E6F756768204554482073656E743B20636865636B207072696365 PUSH1 0x0 DUP3 ADD MSTORE PUSH32 0x2100000000000000000000000000000000000000000000000000000000000000 PUSH1 0x20 DUP3 ADD MSTORE POP JUMP JUMPDEST PUSH1 0x0 PUSH2 0x145F PUSH1 0x21 DUP4 PUSH2 0xDDE JUMP JUMPDEST SWAP2 POP PUSH2 0x146A DUP3 PUSH2 0x1403 JUMP JUMPDEST PUSH1 0x40 DUP3 ADD SWAP1 POP SWAP2 SWAP1 POP JUMP JUMPDEST PUSH1 0x0 PUSH1 0x20 DUP3 ADD SWAP1 POP DUP2 DUP2 SUB PUSH1 0x0 DUP4 ADD MSTORE PUSH2 0x148E DUP2 PUSH2 0x1452 JUMP JUMPDEST SWAP1 POP SWAP2 SWAP1 POP JUMP JUMPDEST PUSH32 0x4E487B7100000000000000000000000000000000000000000000000000000000 PUSH1 0x0 MSTORE PUSH1 0x12 PUSH1 0x4 MSTORE PUSH1 0x24 PUSH1 0x0 REVERT JUMPDEST PUSH1 0x0 PUSH2 0x14CF DUP3 PUSH2 0xEE8 JUMP JUMPDEST SWAP2 POP PUSH2 0x14DA DUP4 PUSH2 0xEE8 JUMP JUMPDEST SWAP3 POP DUP3 PUSH2 0x14EA JUMPI PUSH2 0x14E9 PUSH2 0x1495 JUMP JUMPDEST JUMPDEST DUP3 DUP3 DIV SWAP1 POP SWAP3 SWAP2 POP POP JUMP JUMPDEST PUSH1 0x0 DUP2 PUSH1 0x1 SHR SWAP1 POP SWAP2 SWAP1 POP JUMP JUMPDEST PUSH1 0x0 DUP1 DUP3 SWAP2 POP DUP4 SWAP1 POP JUMPDEST PUSH1 0x1 DUP6 GT ISZERO PUSH2 0x154C JUMPI DUP1 DUP7 DIV DUP2 GT ISZERO PUSH2 0x1528 JUMPI PUSH2 0x1527 PUSH2 0x1142 JUMP JUMPDEST JUMPDEST PUSH1 0x1 DUP6 AND ISZERO PUSH2 0x1537 JUMPI DUP1 DUP3 MUL SWAP2 POP JUMPDEST DUP1 DUP2 MUL SWAP1 POP PUSH2 0x1545 DUP6 PUSH2 0x14F5 JUMP JUMPDEST SWAP5 POP PUSH2 0x150C JUMP JUMPDEST SWAP5 POP SWAP5 SWAP3 POP POP POP JUMP JUMPDEST PUSH1 0x0 DUP3 PUSH2 0x1565 JUMPI PUSH1 0x1 SWAP1 POP PUSH2 0x1621 JUMP JUMPDEST DUP2 PUSH2 0x1573 JUMPI PUSH1 0x0 SWAP1 POP PUSH2 0x1621 JUMP JUMPDEST DUP2 PUSH1 0x1 DUP2 EQ PUSH2 0x1589 JUMPI PUSH1 0x2 DUP2 EQ PUSH2 0x1593 JUMPI PUSH2 0x15C2 JUMP JUMPDEST PUSH1 0x1 SWAP2 POP POP PUSH2 0x1621 JUMP JUMPDEST PUSH1 0xFF DUP5 GT ISZERO PUSH2 0x15A5 JUMPI PUSH2 0x15A4 PUSH2 0x1142 JUMP JUMPDEST JUMPDEST DUP4 PUSH1 0x2 EXP SWAP2 POP DUP5 DUP3 GT ISZERO PUSH2 0x15BC JUMPI PUSH2 0x15BB PUSH2 0x1142 JUMP JUMPDEST JUMPDEST POP PUSH2 0x1621 JUMP JUMPDEST POP PUSH1 0x20 DUP4 LT PUSH2 0x133 DUP4 LT AND PUSH1 0x4E DUP5 LT PUSH1 0xB DUP5 LT AND OR ISZERO PUSH2 0x15F7 JUMPI DUP3 DUP3 EXP SWAP1 POP DUP4 DUP2 GT ISZERO PUSH2 0x15F2 JUMPI PUSH2 0x15F1 PUSH2 0x1142 JUMP JUMPDEST JUMPDEST PUSH2 0x1621 JUMP JUMPDEST PUSH2 0x1604 DUP5 DUP5 DUP5 PUSH1 0x1 PUSH2 0x1502 JUMP JUMPDEST SWAP3 POP SWAP1 POP DUP2 DUP5 DIV DUP2 GT ISZERO PUSH2 0x161B JUMPI PUSH2 0x161A PUSH2 0x1142 JUMP JUMPDEST JUMPDEST DUP2 DUP2 MUL SWAP1 POP JUMPDEST SWAP4 SWAP3 POP POP POP JUMP JUMPDEST PUSH1 0x0 PUSH2 0x1633 DUP3 PUSH2 0xEE8 JUMP JUMPDEST SWAP2 POP PUSH2 0x163E DUP4 PUSH2 0xEE8 JUMP JUMPDEST SWAP3 POP PUSH2 0x166B PUSH32 0xFFFFFFFFFFFFFFFFFFFFFFFFFFFFFFFFFFFFFFFFFFFFFFFFFFFFFFFFFFFFFFFF DUP5 DUP5 PUSH2 0x1555 JUMP JUMPDEST SWAP1 POP SWAP3 SWAP2 POP POP JUMP JUMPDEST PUSH32 0x45524332303A20617070726F76652066726F6D20746865207A65726F20616464 PUSH1 0x0 DUP3 ADD MSTORE PUSH32 0x7265737300000000000000000000000000000000000000000000000000000000 PUSH1 0x20 DUP3 ADD MSTORE POP JUMP JUMPDEST PUSH1 0x0 PUSH2 0x16CF PUSH1 0x24 DUP4 PUSH2 0xDDE JUMP JUMPDEST SWAP2 POP PUSH2 0x16DA DUP3 PUSH2 0x1673 JUMP JUMPDEST PUSH1 0x40 DUP3 ADD SWAP1 POP SWAP2 SWAP1 POP JUMP JUMPDEST PUSH1 0x0 PUSH1 0x20 DUP3 ADD SWAP1 POP DUP2 DUP2 SUB PUSH1 0x0 DUP4 ADD MSTORE PUSH2 0x16FE DUP2 PUSH2 0x16C2 JUMP JUMPDEST SWAP1 POP SWAP2 SWAP1 POP JUMP JUMPDEST PUSH32 0x45524332303A20617070726F766520746F20746865207A65726F206164647265 PUSH1 0x0 DUP3 ADD MSTORE PUSH32 0x7373000000000000000000000000000000000000000000000000000000000000 PUSH1 0x20 DUP3 ADD MSTORE POP JUMP JUMPDEST PUSH1 0x0 PUSH2 0x1761 PUSH1 0x22 DUP4 PUSH2 0xDDE JUMP JUMPDEST SWAP2 POP PUSH2 0x176C DUP3 PUSH2 0x1705 JUMP JUMPDEST PUSH1 0x40 DUP3 ADD SWAP1 POP SWAP2 SWAP1 POP JUMP JUMPDEST PUSH1 0x0 PUSH1 0x20 DUP3 ADD SWAP1 POP DUP2 DUP2 SUB PUSH1 0x0 DUP4 ADD MSTORE PUSH2 0x1790 DUP2 PUSH2 0x1754 JUMP JUMPDEST SWAP1 POP SWAP2 SWAP1 POP JUMP JUMPDEST PUSH32 0x45524332303A207472616E736665722066726F6D20746865207A65726F206164 PUSH1 0x0 DUP3 ADD MSTORE PUSH32 0x6472657373000000000000000000000000000000000000000000000000000000 PUSH1 0x20 DUP3 ADD MSTORE POP JUMP JUMPDEST PUSH1 0x0 PUSH2 0x17F3 PUSH1 0x25 DUP4 PUSH2 0xDDE JUMP JUMPDEST SWAP2 POP PUSH2 0x17FE DUP3 PUSH2 0x1797 JUMP JUMPDEST PUSH1 0x40 DUP3 ADD SWAP1 POP SWAP2 SWAP1 POP JUMP JUMPDEST PUSH1 0x0 PUSH1 0x20 DUP3 ADD SWAP1 POP DUP2 DUP2 SUB PUSH1 0x0 DUP4 ADD MSTORE PUSH2 0x1822 DUP2 PUSH2 0x17E6 JUMP JUMPDEST SWAP1 POP SWAP2 SWAP1 POP JUMP JUMPDEST PUSH32 0x45524332303A207472616E7366657220746F20746865207A65726F2061646472 PUSH1 0x0 DUP3 ADD MSTORE PUSH32 0x6573730000000000000000000000000000000000000000000000000000000000 PUSH1 0x20 DUP3 ADD MSTORE POP JUMP JUMPDEST PUSH1 0x0 PUSH2 0x1885 PUSH1 0x23 DUP4 PUSH2 0xDDE JUMP JUMPDEST SWAP2 POP PUSH2 0x1890 DUP3 PUSH2 0x1829 JUMP JUMPDEST PUSH1 0x40 DUP3 ADD SWAP1 POP SWAP2 SWAP1 POP JUMP JUMPDEST PUSH1 0x0 PUSH1 0x20 DUP3 ADD SWAP1 POP DUP2 DUP2 SUB PUSH1 0x0 DUP4 ADD MSTORE PUSH2 0x18B4 DUP2 PUSH2 0x1878 JUMP JUMPDEST SWAP1 POP SWAP2 SWAP1 POP JUMP JUMPDEST PUSH32 0x45524332303A207472616E7366657220616D6F756E7420657863656564732062 PUSH1 0x0 DUP3 ADD MSTORE PUSH32 0x616C616E63650000000000000000000000000000000000000000000000000000 PUSH1 0x20 DUP3 ADD MSTORE POP JUMP JUMPDEST PUSH1 0x0 PUSH2 0x1917 PUSH1 0x26 DUP4 PUSH2 0xDDE JUMP JUMPDEST SWAP2 POP PUSH2 0x1922 DUP3 PUSH2 0x18BB JUMP JUMPDEST PUSH1 0x40 DUP3 ADD SWAP1 POP SWAP2 SWAP1 POP JUMP JUMPDEST PUSH1 0x0 PUSH1 0x20 DUP3 ADD SWAP1 POP DUP2 DUP2 SUB PUSH1 0x0 DUP4 ADD MSTORE PUSH2 0x1946 DUP2 PUSH2 0x190A JUMP JUMPDEST SWAP1 POP SWAP2 SWAP1 POP JUMP JUMPDEST PUSH1 0x0 PUSH2 0x1958 DUP3 PUSH2 0xEE8 JUMP JUMPDEST SWAP2 POP PUSH2 0x1963 DUP4 PUSH2 0xEE8 JUMP JUMPDEST SWAP3 POP DUP3 DUP3 ADD SWAP1 POP DUP1 DUP3 GT ISZERO PUSH2 0x197B JUMPI PUSH2 0x197A PUSH2 0x1142 JUMP JUMPDEST JUMPDEST SWAP3 SWAP2 POP POP JUMP INVALID LOG2 PUSH5 0x6970667358 0x22 SLT KECCAK256 0xD5 0x4C DUP6 PUSH23 0xD3F3E42317CF4B3D76E2FCB689BFAED5A02F8989483FDD 0xB7 0xA6 0xC4 0x4D 0xE5 PUSH5 0x736F6C6343 STOP ADDMOD XOR STOP CALLER "},"methodIdentifiers":{"allowance(address,address)":"dd62ed3e","approve(address,uint256)":"095ea7b3","balanceOf(address)":"70a08231","burn(uint256)":"42966c68","buyToken()":"a4821719","decimals()":"313ce567","name()":"06fdde03","refundToken(uint256)":"17191704","symbol()":"95d89b41","tokenCost()":"912221d5","totalSupply()":"18160ddd","transfer(address,uint256)":"a9059cbb","transferFrom(address,address,uint256)":"23b872dd"}}}}}