{
  "_format": "hh-sol-artifact-1",
  "contractName": "ScamToken",
  "sourceName": "contracts/ScamToken.sol",
  "abi": [
    {
      "inputs": [
        {
          "internalType": "string",
          "name": "_name",
          "type": "string"
        },
        {
          "internalType": "string",
          "name": "_symbol",
          "type": "string"
        },
        {
          "internalType": "uint8",
          "name": "_decimals",
          "type": "uint8"
        },
        {
          "internalType": "uint256",
          "name": "initialSupply",
          "type": "uint256"
        }
      ],
      "stateMutability": "nonpayable",
      "type": "constructor"
    },
    {
      "anonymous": false,
      "inputs": [
        {
          "indexed": true,
          "internalType": "address",
          "name": "owner",
          "type": "address"
        },
        {
          "indexed": true,
          "internalType": "address",
          "name": "spender",
          "type": "address"
        },
        {
          "indexed": false,
          "internalType": "uint256",
          "name": "value",
          "type": "uint256"
        }
      ],
      "name": "Approval",
      "type": "event"
    },
    {
      "anonymous": false,
      "inputs": [
        {
          "indexed": true,
          "internalType": "address",
          "name": "burner",
          "type": "address"
        },
        {
          "indexed": false,
          "internalType": "uint256",
          "name": "amount",
          "type": "uint256"
        }
      ],
      "name": "Burn",
      "type": "event"
    },
    {
      "anonymous": false,
      "inputs": [
        {
          "indexed": true,
          "internalType": "address",
          "name": "from",
          "type": "address"
        },
        {
          "indexed": true,
          "internalType": "address",
          "name": "to",
          "type": "address"
        },
        {
          "indexed": false,
          "internalType": "uint256",
          "name": "value",
          "type": "uint256"
        }
      ],
      "name": "Transfer",
      "type": "event"
    },
    {
      "inputs": [
        {
          "internalType": "address",
          "name": "owner",
          "type": "address"
        },
        {
          "internalType": "address",
          "name": "spender",
          "type": "address"
        }
      ],
      "name": "allowance",
      "outputs": [
        {
          "internalType": "uint256",
          "name": "",
          "type": "uint256"
        }
      ],
      "stateMutability": "view",
      "type": "function"
    },
    {
      "inputs": [
        {
          "internalType": "address",
          "name": "spender",
          "type": "address"
        },
        {
          "internalType": "uint256",
          "name": "amount",
          "type": "uint256"
        }
      ],
      "name": "approve",
      "outputs": [
        {
          "internalType": "bool",
          "name": "",
          "type": "bool"
        }
      ],
      "stateMutability": "nonpayable",
      "type": "function"
    },
    {
      "inputs": [
        {
          "internalType": "address",
          "name": "account",
          "type": "address"
        }
      ],
      "name": "balanceOf",
      "outputs": [
        {
          "internalType": "uint256",
          "name": "",
          "type": "uint256"
        }
      ],
      "stateMutability": "view",
      "type": "function"
    },
    {
      "inputs": [
        {
          "internalType": "uint256",
          "name": "amount",
          "type": "uint256"
        }
      ],
      "name": "burn",
      "outputs": [
        {
          "internalType": "bool",
          "name": "",
          "type": "bool"
        }
      ],
      "stateMutability": "nonpayable",
      "type": "function"
    },
    {
      "inputs": [],
      "name": "buyToken",
      "outputs": [],
      "stateMutability": "payable",
      "type": "function"
    },
    {
      "inputs": [],
      "name": "decimals",
      "outputs": [
        {
          "internalType": "uint8",
          "name": "",
          "type": "uint8"
        }
      ],
      "stateMutability": "view",
      "type": "function"
    },
    {
      "inputs": [],
      "name": "name",
      "outputs": [
        {
          "internalType": "string",
          "name": "",
          "type": "string"
        }
      ],
      "stateMutability": "view",
      "type": "function"
    },
    {
      "inputs": [
        {
          "internalType": "uint256",
          "name": "amountOfTokens",
          "type": "uint256"
        }
      ],
      "name": "refundToken",
      "outputs": [],
      "stateMutability": "nonpayable",
      "type": "function"
    },
    {
      "inputs": [],
      "name": "symbol",
      "outputs": [
        {
          "internalType": "string",
          "name": "",
          "type": "string"
        }
      ],
      "stateMutability": "view",
      "type": "function"
    },
    {
      "inputs": [],
      "name": "tokenCost",
      "outputs": [
        {
          "internalType": "uint256",
          "name": "",
          "type": "uint256"
        }
      ],
      "stateMutability": "view",
      "type": "function"
    },
    {
      "inputs": [],
      "name": "totalSupply",
      "outputs": [
        {
          "internalType": "uint256",
          "name": "",
          "type": "uint256"
        }
      ],
      "stateMutability": "view",
      "type": "function"
    },
    {
      "inputs": [
        {
          "internalType": "address",
          "name": "recipient",
          "type": "address"
        },
        {
          "internalType": "uint256",
          "name": "amount",
          "type": "uint256"
        }
      ],
      "name": "transfer",
      "outputs": [
        {
          "internalType": "bool",
          "name": "",
          "type": "bool"
        }
      ],
      "stateMutability": "nonpayable",
      "type": "function"
    },
    {
      "inputs": [
        {
          "internalType": "address",
          "name": "sender",
          "type": "address"
        },
        {
          "internalType": "address",
          "name": "recipient",
          "type": "address"
        },
        {
          "internalType": "uint256",
          "name": "amount",
          "type": "uint256"
        }
      ],
      "name": "transferFrom",
      "outputs": [
        {
          "internalType": "bool",
          "name": "",
          "type": "bool"
        }
      ],
      "stateMutability": "nonpayable",
      "type": "function"
    }
  ],
  "bytecode": "0x6080604052655af3107a40006003553480156200001b57600080fd5b506040516200235c3803806200235c833981810160405281019062000041919062000363565b836000908162000052919062000654565b50826001908162000064919062000654565b5081600260006101000a81548160ff021916908360ff160217905550600260009054906101000a900460ff1660ff16600a620000a19190620008be565b81620000ae91906200090f565b600481905550600a600454620000c591906200095a565b600560003073ffffffffffffffffffffffffffffffffffffffff1673ffffffffffffffffffffffffffffffffffffffff16815260200190815260200160002081905550600a600560003373ffffffffffffffffffffffffffffffffffffffff1673ffffffffffffffffffffffffffffffffffffffff168152602001908152602001600020819055505050505062000995565b6000604051905090565b600080fd5b600080fd5b600080fd5b600080fd5b6000601f19601f8301169050919050565b7f4e487b7100000000000000000000000000000000000000000000000000000000600052604160045260246000fd5b620001c08262000175565b810181811067ffffffffffffffff82111715620001e257620001e162000186565b5b80604052505050565b6000620001f762000157565b9050620002058282620001b5565b919050565b600067ffffffffffffffff82111562000228576200022762000186565b5b620002338262000175565b9050602081019050919050565b60005b838110156200026057808201518184015260208101905062000243565b60008484015250505050565b6000620002836200027d846200020a565b620001eb565b905082815260208101848484011115620002a257620002a162000170565b5b620002af84828562000240565b509392505050565b600082601f830112620002cf57620002ce6200016b565b5b8151620002e18482602086016200026c565b91505092915050565b600060ff82169050919050565b6200030281620002ea565b81146200030e57600080fd5b50565b6000815190506200032281620002f7565b92915050565b6000819050919050565b6200033d8162000328565b81146200034957600080fd5b50565b6000815190506200035d8162000332565b92915050565b6000806000806080858703121562000380576200037f62000161565b5b600085015167ffffffffffffffff811115620003a157620003a062000166565b5b620003af87828801620002b7565b945050602085015167ffffffffffffffff811115620003d357620003d262000166565b5b620003e187828801620002b7565b9350506040620003f48782880162000311565b925050606062000407878288016200034c565b91505092959194509250565b600081519050919050565b7f4e487b7100000000000000000000000000000000000000000000000000000000600052602260045260246000fd5b600060028204905060018216806200046657607f821691505b6020821081036200047c576200047b6200041e565b5b50919050565b60008190508160005260206000209050919050565b60006020601f8301049050919050565b600082821b905092915050565b600060088302620004e67fffffffffffffffffffffffffffffffffffffffffffffffffffffffffffffffff82620004a7565b620004f28683620004a7565b95508019841693508086168417925050509392505050565b6000819050919050565b6000620005356200052f620005298462000328565b6200050a565b62000328565b9050919050565b6000819050919050565b620005518362000514565b6200056962000560826200053c565b848454620004b4565b825550505050565b600090565b6200058062000571565b6200058d81848462000546565b505050565b5b81811015620005b557620005a960008262000576565b60018101905062000593565b5050565b601f8211156200060457620005ce8162000482565b620005d98462000497565b81016020851015620005e9578190505b62000601620005f88562000497565b83018262000592565b50505b505050565b600082821c905092915050565b6000620006296000198460080262000609565b1980831691505092915050565b600062000644838362000616565b9150826002028217905092915050565b6200065f8262000413565b67ffffffffffffffff8111156200067b576200067a62000186565b5b6200068782546200044d565b62000694828285620005b9565b600060209050601f831160018114620006cc5760008415620006b7578287015190505b620006c3858262000636565b86555062000733565b601f198416620006dc8662000482565b60005b828110156200070657848901518255600182019150602085019450602081019050620006df565b8683101562000726578489015162000722601f89168262000616565b8355505b6001600288020188555050505b505050505050565b7f4e487b7100000000000000000000000000000000000000000000000000000000600052601160045260246000fd5b60008160011c9050919050565b6000808291508390505b6001851115620007c957808604811115620007a157620007a06200073b565b5b6001851615620007b15780820291505b8081029050620007c1856200076a565b945062000781565b94509492505050565b600082620007e45760019050620008b7565b81620007f45760009050620008b7565b81600181146200080d576002811462000818576200084e565b6001915050620008b7565b60ff8411156200082d576200082c6200073b565b5b8360020a9150848211156200084757620008466200073b565b5b50620008b7565b5060208310610133831016604e8410600b8410161715620008885782820a9050838111156200088257620008816200073b565b5b620008b7565b62000897848484600162000777565b92509050818404811115620008b157620008b06200073b565b5b81810290505b9392505050565b6000620008cb8262000328565b9150620008d88362000328565b9250620009077fffffffffffffffffffffffffffffffffffffffffffffffffffffffffffffffff8484620007d2565b905092915050565b60006200091c8262000328565b9150620009298362000328565b9250828202620009398162000328565b915082820484148315176200095357620009526200073b565b5b5092915050565b6000620009678262000328565b9150620009748362000328565b92508282039050818111156200098f576200098e6200073b565b5b92915050565b6119b780620009a56000396000f3fe6080604052600436106100c25760003560e01c806342966c681161007f57806395d89b411161005957806395d89b4114610290578063a4821719146102bb578063a9059cbb146102c5578063dd62ed3e14610302576100c2565b806342966c68146101eb57806370a0823114610228578063912221d514610265576100c2565b806306fdde03146100c7578063095ea7b3146100f2578063171917041461012f57806318160ddd1461015857806323b872dd14610183578063313ce567146101c0575b600080fd5b3480156100d357600080fd5b506100dc61033f565b6040516100e99190610e63565b60405180910390f35b3480156100fe57600080fd5b5061011960048036038101906101149190610f1e565b6103cd565b6040516101269190610f79565b60405180910390f35b34801561013b57600080fd5b5061015660048036038101906101519190610f94565b6103e4565b005b34801561016457600080fd5b5061016d610577565b60405161017a9190610fd0565b60405180910390f35b34801561018f57600080fd5b506101aa60048036038101906101a59190610feb565b610581565b6040516101b79190610f79565b60405180910390f35b3480156101cc57600080fd5b506101d561062b565b6040516101e2919061105a565b60405180910390f35b3480156101f757600080fd5b50610212600480360381019061020d9190610f94565b61063e565b60405161021f9190610f79565b60405180910390f35b34801561023457600080fd5b5061024f600480360381019061024a9190611075565b610788565b60405161025c9190610fd0565b60405180910390f35b34801561027157600080fd5b5061027a6107d1565b6040516102879190610fd0565b60405180910390f35b34801561029c57600080fd5b506102a56107d7565b6040516102b29190610e63565b60405180910390f35b6102c3610865565b005b3480156102d157600080fd5b506102ec60048036038101906102e79190610f1e565b6108f6565b6040516102f99190610f79565b60405180910390f35b34801561030e57600080fd5b50610329600480360381019061032491906110a2565b61090d565b6040516103369190610fd0565b60405180910390f35b6000805461034c90611111565b80601f016020809104026020016040519081016040528092919081815260200182805461037890611111565b80156103c55780601f1061039a576101008083540402835291602001916103c5565b820191906000526020600020905b8154815290600101906020018083116103a857829003601f168201915b505050505081565b60006103da338484610994565b6001905092915050565b6000600354826103f49190611171565b905080471015610439576040517f08c379a000000000000000000000000000000000000000000000000000000000815260040161043090611225565b60405180910390fd5b81600560003373ffffffffffffffffffffffffffffffffffffffff1673ffffffffffffffffffffffffffffffffffffffff1681526020019081526020016000205410156104bb576040517f08c379a00000000000000000000000000000000000000000000000000000000081526004016104b290611291565b60405180910390fd5b6104c6333084610b5d565b60003373ffffffffffffffffffffffffffffffffffffffff16826040516104ec906112e2565b60006040518083038185875af1925050503d8060008114610529576040519150601f19603f3d011682016040523d82523d6000602084013e61052e565b606091505b5050905080610572576040517f08c379a000000000000000000000000000000000000000000000000000000000815260040161056990611343565b60405180910390fd5b505050565b6000600454905090565b600061058e848484610b5d565b610620843384600660008973ffffffffffffffffffffffffffffffffffffffff1673ffffffffffffffffffffffffffffffffffffffff16815260200190815260200160002060003373ffffffffffffffffffffffffffffffffffffffff1673ffffffffffffffffffffffffffffffffffffffff1681526020019081526020016000205461061b9190611363565b610994565b600190509392505050565b600260009054906101000a900460ff1681565b600081600560003373ffffffffffffffffffffffffffffffffffffffff1673ffffffffffffffffffffffffffffffffffffffff1681526020019081526020016000205410156106c2576040517f08c379a00000000000000000000000000000000000000000000000000000000081526004016106b9906113e3565b60405180910390fd5b81600560003373ffffffffffffffffffffffffffffffffffffffff1673ffffffffffffffffffffffffffffffffffffffff16815260200190815260200160002060008282546107119190611363565b92505081905550816004600082825461072a9190611363565b925050819055503373ffffffffffffffffffffffffffffffffffffffff167fcc16f5dbb4873280815c1ee09dbd06736cffcc184412cf7a71a0fdb75d397ca5836040516107779190610fd0565b60405180910390a260019050919050565b6000600560008373ffffffffffffffffffffffffffffffffffffffff1673ffffffffffffffffffffffffffffffffffffffff168152602001908152602001600020549050919050565b60035481565b600180546107e490611111565b80601f016020809104026020016040519081016040528092919081815260200182805461081090611111565b801561085d5780601f106108325761010080835404028352916020019161085d565b820191906000526020600020905b81548152906001019060200180831161084057829003601f168201915b505050505081565b6003543410156108aa576040517f08c379a00000000000000000000000000000000000000000000000000000000081526004016108a190611475565b60405180910390fd5b6000600354346108ba91906114c4565b9050600260009054906101000a900460ff1660ff16600a6108db9190611628565b816108e69190611171565b90506108f3303383610b5d565b50565b6000610903338484610b5d565b6001905092915050565b6000600660008473ffffffffffffffffffffffffffffffffffffffff1673ffffffffffffffffffffffffffffffffffffffff16815260200190815260200160002060008373ffffffffffffffffffffffffffffffffffffffff1673ffffffffffffffffffffffffffffffffffffffff16815260200190815260200160002054905092915050565b600073ffffffffffffffffffffffffffffffffffffffff168373ffffffffffffffffffffffffffffffffffffffff1603610a03576040517f08c379a00000000000000000000000000000000000000000000000000000000081526004016109fa906116e5565b60405180910390fd5b600073ffffffffffffffffffffffffffffffffffffffff168273ffffffffffffffffffffffffffffffffffffffff1603610a72576040517f08c379a0000000000000000000000000000000000000000000000000000000008152600401610a6990611777565b60405180910390fd5b80600660008573ffffffffffffffffffffffffffffffffffffffff1673ffffffffffffffffffffffffffffffffffffffff16815260200190815260200160002060008473ffffffffffffffffffffffffffffffffffffffff1673ffffffffffffffffffffffffffffffffffffffff168152602001908152602001600020819055508173ffffffffffffffffffffffffffffffffffffffff168373ffffffffffffffffffffffffffffffffffffffff167f8c5be1e5ebec7d5bd14f71427d1e84f3dd0314c0f7b2291e5b200ac8c7c3b92583604051610b509190610fd0565b60405180910390a3505050565b600073ffffffffffffffffffffffffffffffffffffffff168373ffffffffffffffffffffffffffffffffffffffff1603610bcc576040517f08c379a0000000000000000000000000000000000000000000000000000000008152600401610bc390611809565b60405180910390fd5b600073ffffffffffffffffffffffffffffffffffffffff168273ffffffffffffffffffffffffffffffffffffffff1603610c3b576040517f08c379a0000000000000000000000000000000000000000000000000000000008152600401610c329061189b565b60405180910390fd5b80600560008573ffffffffffffffffffffffffffffffffffffffff1673ffffffffffffffffffffffffffffffffffffffff168152602001908152602001600020541015610cbd576040517f08c379a0000000000000000000000000000000000000000000000000000000008152600401610cb49061192d565b60405180910390fd5b80600560008573ffffffffffffffffffffffffffffffffffffffff1673ffffffffffffffffffffffffffffffffffffffff1681526020019081526020016000206000828254610d0c9190611363565b9250508190555080600560008473ffffffffffffffffffffffffffffffffffffffff1673ffffffffffffffffffffffffffffffffffffffff1681526020019081526020016000206000828254610d62919061194d565b925050819055508173ffffffffffffffffffffffffffffffffffffffff168373ffffffffffffffffffffffffffffffffffffffff167fddf252ad1be2c89b69c2b068fc378daa952ba7f163c4a11628f55a4df523b3ef83604051610dc69190610fd0565b60405180910390a3505050565b600081519050919050565b600082825260208201905092915050565b60005b83811015610e0d578082015181840152602081019050610df2565b60008484015250505050565b6000601f19601f8301169050919050565b6000610e3582610dd3565b610e3f8185610dde565b9350610e4f818560208601610def565b610e5881610e19565b840191505092915050565b60006020820190508181036000830152610e7d8184610e2a565b905092915050565b600080fd5b600073ffffffffffffffffffffffffffffffffffffffff82169050919050565b6000610eb582610e8a565b9050919050565b610ec581610eaa565b8114610ed057600080fd5b50565b600081359050610ee281610ebc565b92915050565b6000819050919050565b610efb81610ee8565b8114610f0657600080fd5b50565b600081359050610f1881610ef2565b92915050565b60008060408385031215610f3557610f34610e85565b5b6000610f4385828601610ed3565b9250506020610f5485828601610f09565b9150509250929050565b60008115159050919050565b610f7381610f5e565b82525050565b6000602082019050610f8e6000830184610f6a565b92915050565b600060208284031215610faa57610fa9610e85565b5b6000610fb884828501610f09565b91505092915050565b610fca81610ee8565b82525050565b6000602082019050610fe56000830184610fc1565b92915050565b60008060006060848603121561100457611003610e85565b5b600061101286828701610ed3565b935050602061102386828701610ed3565b925050604061103486828701610f09565b9150509250925092565b600060ff82169050919050565b6110548161103e565b82525050565b600060208201905061106f600083018461104b565b92915050565b60006020828403121561108b5761108a610e85565b5b600061109984828501610ed3565b91505092915050565b600080604083850312156110b9576110b8610e85565b5b60006110c785828601610ed3565b92505060206110d885828601610ed3565b9150509250929050565b7f4e487b7100000000000000000000000000000000000000000000000000000000600052602260045260246000fd5b6000600282049050600182168061112957607f821691505b60208210810361113c5761113b6110e2565b5b50919050565b7f4e487b7100000000000000000000000000000000000000000000000000000000600052601160045260246000fd5b600061117c82610ee8565b915061118783610ee8565b925082820261119581610ee8565b915082820484148315176111ac576111ab611142565b5b5092915050565b7f436f6e74726163742068617320696e73756666696369656e742062616c616e6360008201527f6500000000000000000000000000000000000000000000000000000000000000602082015250565b600061120f602183610dde565b915061121a826111b3565b604082019050919050565b6000602082019050818103600083015261123e81611202565b9050919050565b7f496e73756666696369656e7420746f6b656e2062616c616e6365000000000000600082015250565b600061127b601a83610dde565b915061128682611245565b602082019050919050565b600060208201905081810360008301526112aa8161126e565b9050919050565b600081905092915050565b50565b60006112cc6000836112b1565b91506112d7826112bc565b600082019050919050565b60006112ed826112bf565b9150819050919050565b7f455448207472616e73666572206661696c656400000000000000000000000000600082015250565b600061132d601383610dde565b9150611338826112f7565b602082019050919050565b6000602082019050818103600083015261135c81611320565b9050919050565b600061136e82610ee8565b915061137983610ee8565b925082820390508181111561139157611390611142565b5b92915050565b7f496e73756666696369656e742062616c616e6365000000000000000000000000600082015250565b60006113cd601483610dde565b91506113d882611397565b602082019050919050565b600060208201905081810360008301526113fc816113c0565b9050919050565b7f4e6f7420656e6f756768204554482073656e743b20636865636b20707269636560008201527f2100000000000000000000000000000000000000000000000000000000000000602082015250565b600061145f602183610dde565b915061146a82611403565b604082019050919050565b6000602082019050818103600083015261148e81611452565b9050919050565b7f4e487b7100000000000000000000000000000000000000000000000000000000600052601260045260246000fd5b60006114cf82610ee8565b91506114da83610ee8565b9250826114ea576114e9611495565b5b828204905092915050565b60008160011c9050919050565b6000808291508390505b600185111561154c5780860481111561152857611527611142565b5b60018516156115375780820291505b8081029050611545856114f5565b945061150c565b94509492505050565b6000826115655760019050611621565b816115735760009050611621565b81600181146115895760028114611593576115c2565b6001915050611621565b60ff8411156115a5576115a4611142565b5b8360020a9150848211156115bc576115bb611142565b5b50611621565b5060208310610133831016604e8410600b84101617156115f75782820a9050838111156115f2576115f1611142565b5b611621565b6116048484846001611502565b9250905081840481111561161b5761161a611142565b5b81810290505b9392505050565b600061163382610ee8565b915061163e83610ee8565b925061166b7fffffffffffffffffffffffffffffffffffffffffffffffffffffffffffffffff8484611555565b905092915050565b7f45524332303a20617070726f76652066726f6d20746865207a65726f2061646460008201527f7265737300000000000000000000000000000000000000000000000000000000602082015250565b60006116cf602483610dde565b91506116da82611673565b604082019050919050565b600060208201905081810360008301526116fe816116c2565b9050919050565b7f45524332303a20617070726f766520746f20746865207a65726f20616464726560008201527f7373000000000000000000000000000000000000000000000000000000000000602082015250565b6000611761602283610dde565b915061176c82611705565b604082019050919050565b6000602082019050818103600083015261179081611754565b9050919050565b7f45524332303a207472616e736665722066726f6d20746865207a65726f20616460008201527f6472657373000000000000000000000000000000000000000000000000000000602082015250565b60006117f3602583610dde565b91506117fe82611797565b604082019050919050565b60006020820190508181036000830152611822816117e6565b9050919050565b7f45524332303a207472616e7366657220746f20746865207a65726f206164647260008201527f6573730000000000000000000000000000000000000000000000000000000000602082015250565b6000611885602383610dde565b915061189082611829565b604082019050919050565b600060208201905081810360008301526118b481611878565b9050919050565b7f45524332303a207472616e7366657220616d6f756e742065786365656473206260008201527f616c616e63650000000000000000000000000000000000000000000000000000602082015250565b6000611917602683610dde565b9150611922826118bb565b604082019050919050565b600060208201905081810360008301526119468161190a565b9050919050565b600061195882610ee8565b915061196383610ee8565b925082820190508082111561197b5761197a611142565b5b9291505056fea2646970667358221220d54c8576d3f3e42317cf4b3d76e2fcb689bfaed5a02f8989483fddb7a6c44de564736f6c63430008180033",
  "linkReferences": {},
  "deployedLinkReferences": {}
}